{
  "contractName": "HipostelToken",
  "abi": [
    {
      "inputs": [],
      "stateMutability": "nonpayable",
      "type": "constructor"
    },
    {
      "inputs": [],
      "name": "InvalidShortString",
      "type": "error"
    },
    {
      "inputs": [
        {
          "internalType": "string",
          "name": "str",
          "type": "string"
        }
      ],
      "name": "StringTooLong",
      "type": "error"
    },
    {
      "anonymous": false,
      "inputs": [
        {
          "indexed": true,
          "internalType": "address",
          "name": "owner",
          "type": "address"
        },
        {
          "indexed": true,
          "internalType": "address",
          "name": "spender",
          "type": "address"
        },
        {
          "indexed": false,
          "internalType": "uint256",
          "name": "value",
          "type": "uint256"
        }
      ],
      "name": "Approval",
      "type": "event"
    },
    {
      "anonymous": false,
      "inputs": [
        {
          "indexed": true,
          "internalType": "address",
          "name": "delegator",
          "type": "address"
        },
        {
          "indexed": true,
          "internalType": "address",
          "name": "fromDelegate",
          "type": "address"
        },
        {
          "indexed": true,
          "internalType": "address",
          "name": "toDelegate",
          "type": "address"
        }
      ],
      "name": "DelegateChanged",
      "type": "event"
    },
    {
      "anonymous": false,
      "inputs": [
        {
          "indexed": true,
          "internalType": "address",
          "name": "delegate",
          "type": "address"
        },
        {
          "indexed": false,
          "internalType": "uint256",
          "name": "previousBalance",
          "type": "uint256"
        },
        {
          "indexed": false,
          "internalType": "uint256",
          "name": "newBalance",
          "type": "uint256"
        }
      ],
      "name": "DelegateVotesChanged",
      "type": "event"
    },
    {
      "anonymous": false,
      "inputs": [],
      "name": "EIP712DomainChanged",
      "type": "event"
    },
    {
      "anonymous": false,
      "inputs": [
        {
          "indexed": true,
          "internalType": "address",
          "name": "previousOwner",
          "type": "address"
        },
        {
          "indexed": true,
          "internalType": "address",
          "name": "newOwner",
          "type": "address"
        }
      ],
      "name": "OwnershipTransferred",
      "type": "event"
    },
    {
      "anonymous": false,
      "inputs": [
        {
          "indexed": true,
          "internalType": "address",
          "name": "from",
          "type": "address"
        },
        {
          "indexed": true,
          "internalType": "address",
          "name": "to",
          "type": "address"
        },
        {
          "indexed": false,
          "internalType": "uint256",
          "name": "value",
          "type": "uint256"
        }
      ],
      "name": "Transfer",
      "type": "event"
    },
    {
      "inputs": [],
      "name": "CLOCK_MODE",
      "outputs": [
        {
          "internalType": "string",
          "name": "",
          "type": "string"
        }
      ],
      "stateMutability": "view",
      "type": "function",
      "constant": true
    },
    {
      "inputs": [],
      "name": "DOMAIN_SEPARATOR",
      "outputs": [
        {
          "internalType": "bytes32",
          "name": "",
          "type": "bytes32"
        }
      ],
      "stateMutability": "view",
      "type": "function",
      "constant": true
    },
    {
      "inputs": [
        {
          "internalType": "address",
          "name": "owner",
          "type": "address"
        },
        {
          "internalType": "address",
          "name": "spender",
          "type": "address"
        }
      ],
      "name": "allowance",
      "outputs": [
        {
          "internalType": "uint256",
          "name": "",
          "type": "uint256"
        }
      ],
      "stateMutability": "view",
      "type": "function",
      "constant": true
    },
    {
      "inputs": [
        {
          "internalType": "address",
          "name": "spender",
          "type": "address"
        },
        {
          "internalType": "uint256",
          "name": "amount",
          "type": "uint256"
        }
      ],
      "name": "approve",
      "outputs": [
        {
          "internalType": "bool",
          "name": "",
          "type": "bool"
        }
      ],
      "stateMutability": "nonpayable",
      "type": "function"
    },
    {
      "inputs": [
        {
          "internalType": "address",
          "name": "account",
          "type": "address"
        }
      ],
      "name": "balanceOf",
      "outputs": [
        {
          "internalType": "uint256",
          "name": "",
          "type": "uint256"
        }
      ],
      "stateMutability": "view",
      "type": "function",
      "constant": true
    },
    {
      "inputs": [
        {
          "internalType": "address",
          "name": "account",
          "type": "address"
        },
        {
          "internalType": "uint32",
          "name": "pos",
          "type": "uint32"
        }
      ],
      "name": "checkpoints",
      "outputs": [
        {
          "components": [
            {
              "internalType": "uint32",
              "name": "fromBlock",
              "type": "uint32"
            },
            {
              "internalType": "uint224",
              "name": "votes",
              "type": "uint224"
            }
          ],
          "internalType": "struct ERC20Votes.Checkpoint",
          "name": "",
          "type": "tuple"
        }
      ],
      "stateMutability": "view",
      "type": "function",
      "constant": true
    },
    {
      "inputs": [],
      "name": "clock",
      "outputs": [
        {
          "internalType": "uint48",
          "name": "",
          "type": "uint48"
        }
      ],
      "stateMutability": "view",
      "type": "function",
      "constant": true
    },
    {
      "inputs": [],
      "name": "decimals",
      "outputs": [
        {
          "internalType": "uint8",
          "name": "",
          "type": "uint8"
        }
      ],
      "stateMutability": "view",
      "type": "function",
      "constant": true
    },
    {
      "inputs": [
        {
          "internalType": "address",
          "name": "spender",
          "type": "address"
        },
        {
          "internalType": "uint256",
          "name": "subtractedValue",
          "type": "uint256"
        }
      ],
      "name": "decreaseAllowance",
      "outputs": [
        {
          "internalType": "bool",
          "name": "",
          "type": "bool"
        }
      ],
      "stateMutability": "nonpayable",
      "type": "function"
    },
    {
      "inputs": [
        {
          "internalType": "address",
          "name": "delegatee",
          "type": "address"
        }
      ],
      "name": "delegate",
      "outputs": [],
      "stateMutability": "nonpayable",
      "type": "function"
    },
    {
      "inputs": [
        {
          "internalType": "address",
          "name": "delegatee",
          "type": "address"
        },
        {
          "internalType": "uint256",
          "name": "nonce",
          "type": "uint256"
        },
        {
          "internalType": "uint256",
          "name": "expiry",
          "type": "uint256"
        },
        {
          "internalType": "uint8",
          "name": "v",
          "type": "uint8"
        },
        {
          "internalType": "bytes32",
          "name": "r",
          "type": "bytes32"
        },
        {
          "internalType": "bytes32",
          "name": "s",
          "type": "bytes32"
        }
      ],
      "name": "delegateBySig",
      "outputs": [],
      "stateMutability": "nonpayable",
      "type": "function"
    },
    {
      "inputs": [
        {
          "internalType": "address",
          "name": "account",
          "type": "address"
        }
      ],
      "name": "delegates",
      "outputs": [
        {
          "internalType": "address",
          "name": "",
          "type": "address"
        }
      ],
      "stateMutability": "view",
      "type": "function",
      "constant": true
    },
    {
      "inputs": [],
      "name": "eip712Domain",
      "outputs": [
        {
          "internalType": "bytes1",
          "name": "fields",
          "type": "bytes1"
        },
        {
          "internalType": "string",
          "name": "name",
          "type": "string"
        },
        {
          "internalType": "string",
          "name": "version",
          "type": "string"
        },
        {
          "internalType": "uint256",
          "name": "chainId",
          "type": "uint256"
        },
        {
          "internalType": "address",
          "name": "verifyingContract",
          "type": "address"
        },
        {
          "internalType": "bytes32",
          "name": "salt",
          "type": "bytes32"
        },
        {
          "internalType": "uint256[]",
          "name": "extensions",
          "type": "uint256[]"
        }
      ],
      "stateMutability": "view",
      "type": "function",
      "constant": true
    },
    {
      "inputs": [
        {
          "internalType": "uint256",
          "name": "timepoint",
          "type": "uint256"
        }
      ],
      "name": "getPastTotalSupply",
      "outputs": [
        {
          "internalType": "uint256",
          "name": "",
          "type": "uint256"
        }
      ],
      "stateMutability": "view",
      "type": "function",
      "constant": true
    },
    {
      "inputs": [
        {
          "internalType": "address",
          "name": "account",
          "type": "address"
        },
        {
          "internalType": "uint256",
          "name": "timepoint",
          "type": "uint256"
        }
      ],
      "name": "getPastVotes",
      "outputs": [
        {
          "internalType": "uint256",
          "name": "",
          "type": "uint256"
        }
      ],
      "stateMutability": "view",
      "type": "function",
      "constant": true
    },
    {
      "inputs": [
        {
          "internalType": "address",
          "name": "account",
          "type": "address"
        }
      ],
      "name": "getVotes",
      "outputs": [
        {
          "internalType": "uint256",
          "name": "",
          "type": "uint256"
        }
      ],
      "stateMutability": "view",
      "type": "function",
      "constant": true
    },
    {
      "inputs": [
        {
          "internalType": "address",
          "name": "spender",
          "type": "address"
        },
        {
          "internalType": "uint256",
          "name": "addedValue",
          "type": "uint256"
        }
      ],
      "name": "increaseAllowance",
      "outputs": [
        {
          "internalType": "bool",
          "name": "",
          "type": "bool"
        }
      ],
      "stateMutability": "nonpayable",
      "type": "function"
    },
    {
      "inputs": [],
      "name": "name",
      "outputs": [
        {
          "internalType": "string",
          "name": "",
          "type": "string"
        }
      ],
      "stateMutability": "view",
      "type": "function",
      "constant": true
    },
    {
      "inputs": [
        {
          "internalType": "address",
          "name": "owner",
          "type": "address"
        }
      ],
      "name": "nonces",
      "outputs": [
        {
          "internalType": "uint256",
          "name": "",
          "type": "uint256"
        }
      ],
      "stateMutability": "view",
      "type": "function",
      "constant": true
    },
    {
      "inputs": [
        {
          "internalType": "address",
          "name": "account",
          "type": "address"
        }
      ],
      "name": "numCheckpoints",
      "outputs": [
        {
          "internalType": "uint32",
          "name": "",
          "type": "uint32"
        }
      ],
      "stateMutability": "view",
      "type": "function",
      "constant": true
    },
    {
      "inputs": [],
      "name": "owner",
      "outputs": [
        {
          "internalType": "address",
          "name": "",
          "type": "address"
        }
      ],
      "stateMutability": "view",
      "type": "function",
      "constant": true
    },
    {
      "inputs": [
        {
          "internalType": "address",
          "name": "owner",
          "type": "address"
        },
        {
          "internalType": "address",
          "name": "spender",
          "type": "address"
        },
        {
          "internalType": "uint256",
          "name": "value",
          "type": "uint256"
        },
        {
          "internalType": "uint256",
          "name": "deadline",
          "type": "uint256"
        },
        {
          "internalType": "uint8",
          "name": "v",
          "type": "uint8"
        },
        {
          "internalType": "bytes32",
          "name": "r",
          "type": "bytes32"
        },
        {
          "internalType": "bytes32",
          "name": "s",
          "type": "bytes32"
        }
      ],
      "name": "permit",
      "outputs": [],
      "stateMutability": "nonpayable",
      "type": "function"
    },
    {
      "inputs": [],
      "name": "renounceOwnership",
      "outputs": [],
      "stateMutability": "nonpayable",
      "type": "function"
    },
    {
      "inputs": [],
      "name": "symbol",
      "outputs": [
        {
          "internalType": "string",
          "name": "",
          "type": "string"
        }
      ],
      "stateMutability": "view",
      "type": "function",
      "constant": true
    },
    {
      "inputs": [],
      "name": "totalSupply",
      "outputs": [
        {
          "internalType": "uint256",
          "name": "",
          "type": "uint256"
        }
      ],
      "stateMutability": "view",
      "type": "function",
      "constant": true
    },
    {
      "inputs": [
        {
          "internalType": "address",
          "name": "to",
          "type": "address"
        },
        {
          "internalType": "uint256",
          "name": "amount",
          "type": "uint256"
        }
      ],
      "name": "transfer",
      "outputs": [
        {
          "internalType": "bool",
          "name": "",
          "type": "bool"
        }
      ],
      "stateMutability": "nonpayable",
      "type": "function"
    },
    {
      "inputs": [
        {
          "internalType": "address",
          "name": "from",
          "type": "address"
        },
        {
          "internalType": "address",
          "name": "to",
          "type": "address"
        },
        {
          "internalType": "uint256",
          "name": "amount",
          "type": "uint256"
        }
      ],
      "name": "transferFrom",
      "outputs": [
        {
          "internalType": "bool",
          "name": "",
          "type": "bool"
        }
      ],
      "stateMutability": "nonpayable",
      "type": "function"
    },
    {
      "inputs": [
        {
          "internalType": "address",
          "name": "newOwner",
          "type": "address"
        }
      ],
      "name": "transferOwnership",
      "outputs": [],
      "stateMutability": "nonpayable",
      "type": "function"
    }
  ],
  "bytecode": "0x6101606040523480156200001257600080fd5b506040518060400160405280600881526020017f4869706f7374656c000000000000000000000000000000000000000000000000815250806040518060400160405280600181526020017f31000000000000000000000000000000000000000000000000000000000000008152506040518060400160405280600881526020017f4869706f7374656c0000000000000000000000000000000000000000000000008152506040518060400160405280600381526020017f48495000000000000000000000000000000000000000000000000000000000008152508160039081620000fd919062001098565b5080600490816200010f919062001098565b505050620001286005836200022960201b90919060201c565b6101208181525050620001466006826200022960201b90919060201c565b6101408181525050818051906020012060e08181525050808051906020012061010081815250504660a08181525050620001856200028160201b60201c565b608081815250503073ffffffffffffffffffffffffffffffffffffffff1660c08173ffffffffffffffffffffffffffffffffffffffff1681525050505050620001e3620001d7620002de60201b60201c565b620002e660201b60201c565b6200022333620001f8620003ac60201b60201c565b600a6200020691906200130f565b6301406f4062000217919062001360565b620003b560201b60201c565b62001960565b60006020835110156200024f576200024783620003cb60201b60201c565b90506200027b565b8262000261836200043860201b60201c565b600001908162000272919062001098565b5060ff60001b90505b92915050565b60007f8b73c3c69bb8fe3d512ecc4cf759cc79239f7b179b0ffacaa9a75d522b39400f60e051610100514630604051602001620002c39594939291906200141c565b60405160208183030381529060405280519060200120905090565b600033905090565b6000600c60009054906101000a900473ffffffffffffffffffffffffffffffffffffffff16905081600c60006101000a81548173ffffffffffffffffffffffffffffffffffffffff021916908373ffffffffffffffffffffffffffffffffffffffff1602179055508173ffffffffffffffffffffffffffffffffffffffff168173ffffffffffffffffffffffffffffffffffffffff167f8be0079c531659141344cd1fd0a4f28419497f9722a3daafe3b4186f6b6457e060405160405180910390a35050565b60006012905090565b620003c782826200044260201b60201c565b5050565b600080829050601f815111156200041b57826040517f305a27a900000000000000000000000000000000000000000000000000000000815260040162000412919062001508565b60405180910390fd5b80518162000429906200155e565b60001c1760001b915050919050565b6000819050919050565b620004548282620004fb60201b60201c565b620004646200066860201b60201c565b7bffffffffffffffffffffffffffffffffffffffffffffffffffffffff16620004926200068c60201b60201c565b1115620004d6576040517f08c379a0000000000000000000000000000000000000000000000000000000008152600401620004cd9062001644565b60405180910390fd5b620004f5600b6200069660201b620012171783620006ae60201b60201c565b50505050565b600073ffffffffffffffffffffffffffffffffffffffff168273ffffffffffffffffffffffffffffffffffffffff16036200056d576040517f08c379a00000000000000000000000000000000000000000000000000000000081526004016200056490620016b6565b60405180910390fd5b6200058160008383620009c460201b60201c565b8060026000828254620005959190620016d8565b92505081905550806000808473ffffffffffffffffffffffffffffffffffffffff1673ffffffffffffffffffffffffffffffffffffffff168152602001908152602001600020600082825401925050819055508173ffffffffffffffffffffffffffffffffffffffff16600073ffffffffffffffffffffffffffffffffffffffff167fddf252ad1be2c89b69c2b068fc378daa952ba7f163c4a11628f55a4df523b3ef8360405162000648919062001713565b60405180910390a36200066460008383620009c960201b60201c565b5050565b60007bffffffffffffffffffffffffffffffffffffffffffffffffffffffff905090565b6000600254905090565b60008183620006a69190620016d8565b905092915050565b60008060008580549050905060008082146200077e57620006d98760018403620009e160201b60201c565b6040518060400160405290816000820160009054906101000a900463ffffffff1663ffffffff1663ffffffff1681526020016000820160049054906101000a90047bffffffffffffffffffffffffffffffffffffffffffffffffffffffff167bffffffffffffffffffffffffffffffffffffffffffffffffffffffff167bffffffffffffffffffffffffffffffffffffffffffffffffffffffff1681525050620007ba565b6040518060400160405280600063ffffffff16815260200160007bffffffffffffffffffffffffffffffffffffffffffffffffffffffff168152505b905080602001517bffffffffffffffffffffffffffffffffffffffffffffffffffffffff169350620007ed84868860201c565b92506000821180156200082057506200080b620009f660201b60201c565b65ffffffffffff16816000015163ffffffff16145b15620008a357620008378362000a0e60201b60201c565b6200084c8860018503620009e160201b60201c565b60000160046101000a8154817bffffffffffffffffffffffffffffffffffffffffffffffffffffffff02191690837bffffffffffffffffffffffffffffffffffffffffffffffffffffffff160217905550620009ba565b866040518060400160405280620008d7620008c3620009f660201b60201c565b65ffffffffffff1662000a7c60201b60201c565b63ffffffff168152602001620008f38662000a0e60201b60201c565b7bffffffffffffffffffffffffffffffffffffffffffffffffffffffff168152509080600181540180825580915050600190039060005260206000200160009091909190915060008201518160000160006101000a81548163ffffffff021916908363ffffffff16021790555060208201518160000160046101000a8154817bffffffffffffffffffffffffffffffffffffffffffffffffffffffff02191690837bffffffffffffffffffffffffffffffffffffffffffffffffffffffff16021790555050505b5050935093915050565b505050565b620009dc83838362000ad260201b60201c565b505050565b60008260005281602060002001905092915050565b600062000a094362000b1d60201b60201c565b905090565b60007bffffffffffffffffffffffffffffffffffffffffffffffffffffffff801682111562000a74576040517f08c379a000000000000000000000000000000000000000000000000000000000815260040162000a6b90620017a6565b60405180910390fd5b819050919050565b600063ffffffff801682111562000aca576040517f08c379a000000000000000000000000000000000000000000000000000000000815260040162000ac1906200183e565b60405180910390fd5b819050919050565b62000ae583838362000b7560201b60201c565b62000b1862000afa8462000b7a60201b60201c565b62000b0b8462000b7a60201b60201c565b8362000be360201b60201c565b505050565b600065ffffffffffff801682111562000b6d576040517f08c379a000000000000000000000000000000000000000000000000000000000815260040162000b6490620018d6565b60405180910390fd5b819050919050565b505050565b6000600960008373ffffffffffffffffffffffffffffffffffffffff1673ffffffffffffffffffffffffffffffffffffffff16815260200190815260200160002060009054906101000a900473ffffffffffffffffffffffffffffffffffffffff169050919050565b8173ffffffffffffffffffffffffffffffffffffffff168373ffffffffffffffffffffffffffffffffffffffff161415801562000c205750600081115b1562000e0157600073ffffffffffffffffffffffffffffffffffffffff168373ffffffffffffffffffffffffffffffffffffffff161462000d135760008062000cba600a60008773ffffffffffffffffffffffffffffffffffffffff1673ffffffffffffffffffffffffffffffffffffffff16815260200190815260200160002062000e0660201b6200122d1785620006ae60201b60201c565b915091508473ffffffffffffffffffffffffffffffffffffffff167fdec2bacdd2f05b59de34da9b523dff8be42e5e38e818c82fdb0bae774387a724838360405162000d08929190620018f8565b60405180910390a250505b600073ffffffffffffffffffffffffffffffffffffffff168273ffffffffffffffffffffffffffffffffffffffff161462000e005760008062000da7600a60008673ffffffffffffffffffffffffffffffffffffffff1673ffffffffffffffffffffffffffffffffffffffff1681526020019081526020016000206200069660201b620012171785620006ae60201b60201c565b915091508373ffffffffffffffffffffffffffffffffffffffff167fdec2bacdd2f05b59de34da9b523dff8be42e5e38e818c82fdb0bae774387a724838360405162000df5929190620018f8565b60405180910390a250505b5b505050565b6000818362000e16919062001925565b905092915050565b600081519050919050565b7f4e487b7100000000000000000000000000000000000000000000000000000000600052604160045260246000fd5b7f4e487b7100000000000000000000000000000000000000000000000000000000600052602260045260246000fd5b6000600282049050600182168062000ea057607f821691505b60208210810362000eb65762000eb562000e58565b5b50919050565b60008190508160005260206000209050919050565b60006020601f8301049050919050565b600082821b905092915050565b60006008830262000f207fffffffffffffffffffffffffffffffffffffffffffffffffffffffffffffffff8262000ee1565b62000f2c868362000ee1565b95508019841693508086168417925050509392505050565b6000819050919050565b6000819050919050565b600062000f7962000f7362000f6d8462000f44565b62000f4e565b62000f44565b9050919050565b6000819050919050565b62000f958362000f58565b62000fad62000fa48262000f80565b84845462000eee565b825550505050565b600090565b62000fc462000fb5565b62000fd181848462000f8a565b505050565b5b8181101562000ff95762000fed60008262000fba565b60018101905062000fd7565b5050565b601f8211156200104857620010128162000ebc565b6200101d8462000ed1565b810160208510156200102d578190505b620010456200103c8562000ed1565b83018262000fd6565b50505b505050565b600082821c905092915050565b60006200106d600019846008026200104d565b1980831691505092915050565b60006200108883836200105a565b9150826002028217905092915050565b620010a38262000e1e565b67ffffffffffffffff811115620010bf57620010be62000e29565b5b620010cb825462000e87565b620010d882828562000ffd565b600060209050601f831160018114620011105760008415620010fb578287015190505b6200110785826200107a565b86555062001177565b601f198416620011208662000ebc565b60005b828110156200114a5784890151825560018201915060208501945060208101905062001123565b868310156200116a578489015162001166601f8916826200105a565b8355505b6001600288020188555050505b505050505050565b7f4e487b7100000000000000000000000000000000000000000000000000000000600052601160045260246000fd5b60008160011c9050919050565b6000808291508390505b60018511156200120d57808604811115620011e557620011e46200117f565b5b6001851615620011f55780820291505b80810290506200120585620011ae565b9450620011c5565b94509492505050565b600082620012285760019050620012fb565b81620012385760009050620012fb565b81600181146200125157600281146200125c5762001292565b6001915050620012fb565b60ff8411156200127157620012706200117f565b5b8360020a9150848211156200128b576200128a6200117f565b5b50620012fb565b5060208310610133831016604e8410600b8410161715620012cc5782820a905083811115620012c657620012c56200117f565b5b620012fb565b620012db8484846001620011bb565b92509050818404811115620012f557620012f46200117f565b5b81810290505b9392505050565b600060ff82169050919050565b60006200131c8262000f44565b9150620013298362001302565b9250620013587fffffffffffffffffffffffffffffffffffffffffffffffffffffffffffffffff848462001216565b905092915050565b60006200136d8262000f44565b91506200137a8362000f44565b92508282026200138a8162000f44565b91508282048414831517620013a457620013a36200117f565b5b5092915050565b6000819050919050565b620013c081620013ab565b82525050565b620013d18162000f44565b82525050565b600073ffffffffffffffffffffffffffffffffffffffff82169050919050565b60006200140482620013d7565b9050919050565b6200141681620013f7565b82525050565b600060a082019050620014336000830188620013b5565b620014426020830187620013b5565b620014516040830186620013b5565b620014606060830185620013c6565b6200146f60808301846200140b565b9695505050505050565b600082825260208201905092915050565b60005b83811015620014aa5780820151818401526020810190506200148d565b60008484015250505050565b6000601f19601f8301169050919050565b6000620014d48262000e1e565b620014e0818562001479565b9350620014f28185602086016200148a565b620014fd81620014b6565b840191505092915050565b60006020820190508181036000830152620015248184620014c7565b905092915050565b600081519050919050565b6000819050602082019050919050565b6000620015558251620013ab565b80915050919050565b60006200156b826200152c565b82620015778462001537565b9050620015848162001547565b92506020821015620015c757620015c27fffffffffffffffffffffffffffffffffffffffffffffffffffffffffffffffff8360200360080262000ee1565b831692505b5050919050565b7f4552433230566f7465733a20746f74616c20737570706c79207269736b73206f60008201527f766572666c6f77696e6720766f74657300000000000000000000000000000000602082015250565b60006200162c60308362001479565b91506200163982620015ce565b604082019050919050565b600060208201905081810360008301526200165f816200161d565b9050919050565b7f45524332303a206d696e7420746f20746865207a65726f206164647265737300600082015250565b60006200169e601f8362001479565b9150620016ab8262001666565b602082019050919050565b60006020820190508181036000830152620016d1816200168f565b9050919050565b6000620016e58262000f44565b9150620016f28362000f44565b92508282019050808211156200170d576200170c6200117f565b5b92915050565b60006020820190506200172a6000830184620013c6565b92915050565b7f53616665436173743a2076616c756520646f65736e27742066697420696e203260008201527f3234206269747300000000000000000000000000000000000000000000000000602082015250565b60006200178e60278362001479565b91506200179b8262001730565b604082019050919050565b60006020820190508181036000830152620017c1816200177f565b9050919050565b7f53616665436173743a2076616c756520646f65736e27742066697420696e203360008201527f3220626974730000000000000000000000000000000000000000000000000000602082015250565b60006200182660268362001479565b91506200183382620017c8565b604082019050919050565b60006020820190508181036000830152620018598162001817565b9050919050565b7f53616665436173743a2076616c756520646f65736e27742066697420696e203460008201527f3820626974730000000000000000000000000000000000000000000000000000602082015250565b6000620018be60268362001479565b9150620018cb8262001860565b604082019050919050565b60006020820190508181036000830152620018f181620018af565b9050919050565b60006040820190506200190f6000830185620013c6565b6200191e6020830184620013c6565b9392505050565b6000620019328262000f44565b91506200193f8362000f44565b92508282039050818111156200195a57620019596200117f565b5b92915050565b60805160a05160c05160e051610100516101205161014051613f47620019bb6000396000610a29015260006109f501526000611dd701526000611db60152600061171a01526000611770015260006117990152613f476000f3fe608060405234801561001057600080fd5b50600436106101c45760003560e01c80637ecebe00116100f9578063a457c2d711610097578063d505accf11610071578063d505accf1461055f578063dd62ed3e1461057b578063f1127ed8146105ab578063f2fde38b146105db576101c4565b8063a457c2d7146104e3578063a9059cbb14610513578063c3cda52014610543576101c4565b80638e539e8c116100d35780638e539e8c1461044757806391ddadf41461047757806395d89b41146104955780639ab24eb0146104b3576101c4565b80637ecebe00146103d557806384b0196e146104055780638da5cb5b14610429576101c4565b80633a46b1a8116101665780635c19a95c116101405780635c19a95c1461034f5780636fcfff451461036b57806370a082311461039b578063715018a6146103cb576101c4565b80633a46b1a8146102d15780634bf5d7e914610301578063587cde1e1461031f576101c4565b806323b872dd116101a257806323b872dd14610235578063313ce567146102655780633644e5151461028357806339509351146102a1576101c4565b806306fdde03146101c9578063095ea7b3146101e757806318160ddd14610217575b600080fd5b6101d16105f7565b6040516101de91906129f5565b60405180910390f35b61020160048036038101906101fc9190612ab0565b610689565b60405161020e9190612b0b565b60405180910390f35b61021f6106ac565b60405161022c9190612b35565b60405180910390f35b61024f600480360381019061024a9190612b50565b6106b6565b60405161025c9190612b0b565b60405180910390f35b61026d6106e5565b60405161027a9190612bbf565b60405180910390f35b61028b6106ee565b6040516102989190612bf3565b60405180910390f35b6102bb60048036038101906102b69190612ab0565b6106fd565b6040516102c89190612b0b565b60405180910390f35b6102eb60048036038101906102e69190612ab0565b610734565b6040516102f89190612b35565b60405180910390f35b6103096107d7565b60405161031691906129f5565b60405180910390f35b61033960048036038101906103349190612c0e565b610865565b6040516103469190612c4a565b60405180910390f35b61036960048036038101906103649190612c0e565b6108ce565b005b61038560048036038101906103809190612c0e565b6108e2565b6040516103929190612c84565b60405180910390f35b6103b560048036038101906103b09190612c0e565b610936565b6040516103c29190612b35565b60405180910390f35b6103d361097e565b005b6103ef60048036038101906103ea9190612c0e565b610992565b6040516103fc9190612b35565b60405180910390f35b61040d6109e2565b6040516104209796959493929190612d98565b60405180910390f35b610431610ae4565b60405161043e9190612c4a565b60405180910390f35b610461600480360381019061045c9190612e1c565b610b0e565b60405161046e9190612b35565b60405180910390f35b61047f610b73565b60405161048c9190612e6a565b60405180910390f35b61049d610b83565b6040516104aa91906129f5565b60405180910390f35b6104cd60048036038101906104c89190612c0e565b610c15565b6040516104da9190612b35565b60405180910390f35b6104fd60048036038101906104f89190612ab0565b610d1d565b60405161050a9190612b0b565b60405180910390f35b61052d60048036038101906105289190612ab0565b610d94565b60405161053a9190612b0b565b60405180910390f35b61055d60048036038101906105589190612edd565b610db7565b005b61057960048036038101906105749190612f6a565b610ebb565b005b6105956004803603810190610590919061300c565b610ffd565b6040516105a29190612b35565b60405180910390f35b6105c560048036038101906105c09190613078565b611084565b6040516105d2919061312d565b60405180910390f35b6105f560048036038101906105f09190612c0e565b611194565b005b60606003805461060690613177565b80601f016020809104026020016040519081016040528092919081815260200182805461063290613177565b801561067f5780601f106106545761010080835404028352916020019161067f565b820191906000526020600020905b81548152906001019060200180831161066257829003601f168201915b5050505050905090565b600080610694611243565b90506106a181858561124b565b600191505092915050565b6000600254905090565b6000806106c1611243565b90506106ce858285611414565b6106d98585856114a0565b60019150509392505050565b60006012905090565b60006106f8611716565b905090565b600080610708611243565b905061072981858561071a8589610ffd565b61072491906131d7565b61124b565b600191505092915050565b600061073e610b73565b65ffffffffffff168210610787576040517f08c379a000000000000000000000000000000000000000000000000000000000815260040161077e90613257565b60405180910390fd5b6107cf600a60008573ffffffffffffffffffffffffffffffffffffffff1673ffffffffffffffffffffffffffffffffffffffff168152602001908152602001600020836117cd565b905092915050565b6060436107e2610b73565b65ffffffffffff161461082a576040517f08c379a0000000000000000000000000000000000000000000000000000000008152600401610821906132c3565b60405180910390fd5b6040518060400160405280601d81526020017f6d6f64653d626c6f636b6e756d6265722666726f6d3d64656661756c74000000815250905090565b6000600960008373ffffffffffffffffffffffffffffffffffffffff1673ffffffffffffffffffffffffffffffffffffffff16815260200190815260200160002060009054906101000a900473ffffffffffffffffffffffffffffffffffffffff169050919050565b6108df6108d9611243565b82611915565b50565b600061092f600a60008473ffffffffffffffffffffffffffffffffffffffff1673ffffffffffffffffffffffffffffffffffffffff16815260200190815260200160002080549050611a2f565b9050919050565b60008060008373ffffffffffffffffffffffffffffffffffffffff1673ffffffffffffffffffffffffffffffffffffffff168152602001908152602001600020549050919050565b610986611a82565b6109906000611b00565b565b60006109db600760008473ffffffffffffffffffffffffffffffffffffffff1673ffffffffffffffffffffffffffffffffffffffff168152602001908152602001600020611bc6565b9050919050565b600060608060008060006060610a2260057f0000000000000000000000000000000000000000000000000000000000000000611bd490919063ffffffff16565b610a5660067f0000000000000000000000000000000000000000000000000000000000000000611bd490919063ffffffff16565b46306000801b600067ffffffffffffffff811115610a7757610a766132e3565b5b604051908082528060200260200182016040528015610aa55781602001602082028036833780820191505090505b507f0f00000000000000000000000000000000000000000000000000000000000000959493929190965096509650965096509650965090919293949596565b6000600c60009054906101000a900473ffffffffffffffffffffffffffffffffffffffff16905090565b6000610b18610b73565b65ffffffffffff168210610b61576040517f08c379a0000000000000000000000000000000000000000000000000000000008152600401610b5890613257565b60405180910390fd5b610b6c600b836117cd565b9050919050565b6000610b7e43611c84565b905090565b606060048054610b9290613177565b80601f0160208091040260200160405190810160405280929190818152602001828054610bbe90613177565b8015610c0b5780601f10610be057610100808354040283529160200191610c0b565b820191906000526020600020905b815481529060010190602001808311610bee57829003601f168201915b5050505050905090565b600080600a60008473ffffffffffffffffffffffffffffffffffffffff1673ffffffffffffffffffffffffffffffffffffffff16815260200190815260200160002080549050905060008114610cf457600a60008473ffffffffffffffffffffffffffffffffffffffff1673ffffffffffffffffffffffffffffffffffffffff1681526020019081526020016000206001820381548110610cb957610cb8613312565b5b9060005260206000200160000160049054906101000a90047bffffffffffffffffffffffffffffffffffffffffffffffffffffffff16610cf7565b60005b7bffffffffffffffffffffffffffffffffffffffffffffffffffffffff16915050919050565b600080610d28611243565b90506000610d368286610ffd565b905083811015610d7b576040517f08c379a0000000000000000000000000000000000000000000000000000000008152600401610d72906133b3565b60405180910390fd5b610d88828686840361124b565b60019250505092915050565b600080610d9f611243565b9050610dac8185856114a0565b600191505092915050565b83421115610dfa576040517f08c379a0000000000000000000000000000000000000000000000000000000008152600401610df19061341f565b60405180910390fd5b6000610e5c610e547fe48329057bfd03d55e49b547132e39cffd9c1820ad7b9d4c5307691425d15adf898989604051602001610e39949392919061343f565b60405160208183030381529060405280519060200120611cd9565b858585611cf3565b9050610e6781611d1e565b8614610ea8576040517f08c379a0000000000000000000000000000000000000000000000000000000008152600401610e9f906134d0565b60405180910390fd5b610eb28188611915565b50505050505050565b83421115610efe576040517f08c379a0000000000000000000000000000000000000000000000000000000008152600401610ef59061353c565b60405180910390fd5b60007f6e71edae12b1b97f4d1f60370fef10105fa2faae0126114a169c64845d6126c9888888610f2d8c611d1e565b89604051602001610f439695949392919061355c565b6040516020818303038152906040528051906020012090506000610f6682611cd9565b90506000610f7682878787611cf3565b90508973ffffffffffffffffffffffffffffffffffffffff168173ffffffffffffffffffffffffffffffffffffffff1614610fe6576040517f08c379a0000000000000000000000000000000000000000000000000000000008152600401610fdd90613609565b60405180910390fd5b610ff18a8a8a61124b565b50505050505050505050565b6000600160008473ffffffffffffffffffffffffffffffffffffffff1673ffffffffffffffffffffffffffffffffffffffff16815260200190815260200160002060008373ffffffffffffffffffffffffffffffffffffffff1673ffffffffffffffffffffffffffffffffffffffff16815260200190815260200160002054905092915050565b61108c612927565b600a60008473ffffffffffffffffffffffffffffffffffffffff1673ffffffffffffffffffffffffffffffffffffffff1681526020019081526020016000208263ffffffff16815481106110e3576110e2613312565b5b906000526020600020016040518060400160405290816000820160009054906101000a900463ffffffff1663ffffffff1663ffffffff1681526020016000820160049054906101000a90047bffffffffffffffffffffffffffffffffffffffffffffffffffffffff167bffffffffffffffffffffffffffffffffffffffffffffffffffffffff167bffffffffffffffffffffffffffffffffffffffffffffffffffffffff1681525050905092915050565b61119c611a82565b600073ffffffffffffffffffffffffffffffffffffffff168173ffffffffffffffffffffffffffffffffffffffff160361120b576040517f08c379a00000000000000000000000000000000000000000000000000000000081526004016112029061369b565b60405180910390fd5b61121481611b00565b50565b6000818361122591906131d7565b905092915050565b6000818361123b91906136bb565b905092915050565b600033905090565b600073ffffffffffffffffffffffffffffffffffffffff168373ffffffffffffffffffffffffffffffffffffffff16036112ba576040517f08c379a00000000000000000000000000000000000000000000000000000000081526004016112b190613761565b60405180910390fd5b600073ffffffffffffffffffffffffffffffffffffffff168273ffffffffffffffffffffffffffffffffffffffff1603611329576040517f08c379a0000000000000000000000000000000000000000000000000000000008152600401611320906137f3565b60405180910390fd5b80600160008573ffffffffffffffffffffffffffffffffffffffff1673ffffffffffffffffffffffffffffffffffffffff16815260200190815260200160002060008473ffffffffffffffffffffffffffffffffffffffff1673ffffffffffffffffffffffffffffffffffffffff168152602001908152602001600020819055508173ffffffffffffffffffffffffffffffffffffffff168373ffffffffffffffffffffffffffffffffffffffff167f8c5be1e5ebec7d5bd14f71427d1e84f3dd0314c0f7b2291e5b200ac8c7c3b925836040516114079190612b35565b60405180910390a3505050565b60006114208484610ffd565b90507fffffffffffffffffffffffffffffffffffffffffffffffffffffffffffffffff811461149a578181101561148c576040517f08c379a00000000000000000000000000000000000000000000000000000000081526004016114839061385f565b60405180910390fd5b611499848484840361124b565b5b50505050565b600073ffffffffffffffffffffffffffffffffffffffff168373ffffffffffffffffffffffffffffffffffffffff160361150f576040517f08c379a0000000000000000000000000000000000000000000000000000000008152600401611506906138f1565b60405180910390fd5b600073ffffffffffffffffffffffffffffffffffffffff168273ffffffffffffffffffffffffffffffffffffffff160361157e576040517f08c379a000000000000000000000000000000000000000000000000000000000815260040161157590613983565b60405180910390fd5b611589838383611d7c565b60008060008573ffffffffffffffffffffffffffffffffffffffff1673ffffffffffffffffffffffffffffffffffffffff1681526020019081526020016000205490508181101561160f576040517f08c379a000000000000000000000000000000000000000000000000000000000815260040161160690613a15565b60405180910390fd5b8181036000808673ffffffffffffffffffffffffffffffffffffffff1673ffffffffffffffffffffffffffffffffffffffff16815260200190815260200160002081905550816000808573ffffffffffffffffffffffffffffffffffffffff1673ffffffffffffffffffffffffffffffffffffffff168152602001908152602001600020600082825401925050819055508273ffffffffffffffffffffffffffffffffffffffff168473ffffffffffffffffffffffffffffffffffffffff167fddf252ad1be2c89b69c2b068fc378daa952ba7f163c4a11628f55a4df523b3ef846040516116fd9190612b35565b60405180910390a3611710848484611d81565b50505050565b60007f000000000000000000000000000000000000000000000000000000000000000073ffffffffffffffffffffffffffffffffffffffff163073ffffffffffffffffffffffffffffffffffffffff1614801561179257507f000000000000000000000000000000000000000000000000000000000000000046145b156117bf577f000000000000000000000000000000000000000000000000000000000000000090506117ca565b6117c7611d91565b90505b90565b6000808380549050905060008082905060058311156118435760006117f184611e27565b846117fc91906136bb565b9050856118098883611f20565b60000160009054906101000a900463ffffffff1663ffffffff16111561183157809150611841565b60018161183e91906131d7565b92505b505b5b808210156118a35760006118588383611f35565b9050856118658883611f20565b60000160009054906101000a900463ffffffff1663ffffffff16111561188d5780915061189d565b60018161189a91906131d7565b92505b50611844565b600081146118e9576118b88660018303611f20565b60000160049054906101000a90047bffffffffffffffffffffffffffffffffffffffffffffffffffffffff166118ec565b60005b7bffffffffffffffffffffffffffffffffffffffffffffffffffffffff16935050505092915050565b600061192083610865565b9050600061192d84610936565b905082600960008673ffffffffffffffffffffffffffffffffffffffff1673ffffffffffffffffffffffffffffffffffffffff16815260200190815260200160002060006101000a81548173ffffffffffffffffffffffffffffffffffffffff021916908373ffffffffffffffffffffffffffffffffffffffff1602179055508273ffffffffffffffffffffffffffffffffffffffff168273ffffffffffffffffffffffffffffffffffffffff168573ffffffffffffffffffffffffffffffffffffffff167f3134e8a2e6d97e929a7e54011ea5485d7d196dd5f0ba4d4ef95803e8e3fc257f60405160405180910390a4611a29828483611f5b565b50505050565b600063ffffffff8016821115611a7a576040517f08c379a0000000000000000000000000000000000000000000000000000000008152600401611a7190613aa7565b60405180910390fd5b819050919050565b611a8a611243565b73ffffffffffffffffffffffffffffffffffffffff16611aa8610ae4565b73ffffffffffffffffffffffffffffffffffffffff1614611afe576040517f08c379a0000000000000000000000000000000000000000000000000000000008152600401611af590613b13565b60405180910390fd5b565b6000600c60009054906101000a900473ffffffffffffffffffffffffffffffffffffffff16905081600c60006101000a81548173ffffffffffffffffffffffffffffffffffffffff021916908373ffffffffffffffffffffffffffffffffffffffff1602179055508173ffffffffffffffffffffffffffffffffffffffff168173ffffffffffffffffffffffffffffffffffffffff167f8be0079c531659141344cd1fd0a4f28419497f9722a3daafe3b4186f6b6457e060405160405180910390a35050565b600081600001549050919050565b606060ff60001b8314611bf157611bea83612154565b9050611c7e565b818054611bfd90613177565b80601f0160208091040260200160405190810160405280929190818152602001828054611c2990613177565b8015611c765780601f10611c4b57610100808354040283529160200191611c76565b820191906000526020600020905b815481529060010190602001808311611c5957829003601f168201915b505050505090505b92915050565b600065ffffffffffff8016821115611cd1576040517f08c379a0000000000000000000000000000000000000000000000000000000008152600401611cc890613ba5565b60405180910390fd5b819050919050565b6000611cec611ce6611716565b836121c8565b9050919050565b6000806000611d0487878787612209565b91509150611d11816122eb565b8192505050949350505050565b600080600760008473ffffffffffffffffffffffffffffffffffffffff1673ffffffffffffffffffffffffffffffffffffffff1681526020019081526020016000209050611d6b81611bc6565b9150611d7681612451565b50919050565b505050565b611d8c838383612467565b505050565b60007f8b73c3c69bb8fe3d512ecc4cf759cc79239f7b179b0ffacaa9a75d522b39400f7f00000000000000000000000000000000000000000000000000000000000000007f00000000000000000000000000000000000000000000000000000000000000004630604051602001611e0c959493929190613bc5565b60405160208183030381529060405280519060200120905090565b6000808203611e395760009050611f1b565b60006001611e4684612492565b901c6001901b90506001818481611e6057611e5f613c18565b5b048201901c90506001818481611e7957611e78613c18565b5b048201901c90506001818481611e9257611e91613c18565b5b048201901c90506001818481611eab57611eaa613c18565b5b048201901c90506001818481611ec457611ec3613c18565b5b048201901c90506001818481611edd57611edc613c18565b5b048201901c90506001818481611ef657611ef5613c18565b5b048201901c9050611f1781828581611f1157611f10613c18565b5b04612573565b9150505b919050565b60008260005281602060002001905092915050565b60006002828418611f469190613c47565b828416611f5391906131d7565b905092915050565b8173ffffffffffffffffffffffffffffffffffffffff168373ffffffffffffffffffffffffffffffffffffffff1614158015611f975750600081115b1561214f57600073ffffffffffffffffffffffffffffffffffffffff168373ffffffffffffffffffffffffffffffffffffffff16146120755760008061201e600a60008773ffffffffffffffffffffffffffffffffffffffff1673ffffffffffffffffffffffffffffffffffffffff16815260200190815260200160002061122d8561258c565b915091508473ffffffffffffffffffffffffffffffffffffffff167fdec2bacdd2f05b59de34da9b523dff8be42e5e38e818c82fdb0bae774387a724838360405161206a929190613c78565b60405180910390a250505b600073ffffffffffffffffffffffffffffffffffffffff168273ffffffffffffffffffffffffffffffffffffffff161461214e576000806120f7600a60008673ffffffffffffffffffffffffffffffffffffffff1673ffffffffffffffffffffffffffffffffffffffff1681526020019081526020016000206112178561258c565b915091508373ffffffffffffffffffffffffffffffffffffffff167fdec2bacdd2f05b59de34da9b523dff8be42e5e38e818c82fdb0bae774387a7248383604051612143929190613c78565b60405180910390a250505b5b505050565b6060600061216183612867565b90506000602067ffffffffffffffff8111156121805761217f6132e3565b5b6040519080825280601f01601f1916602001820160405280156121b25781602001600182028036833780820191505090505b5090508181528360208201528092505050919050565b60006040517f190100000000000000000000000000000000000000000000000000000000000081528360028201528260228201526042812091505092915050565b6000807f7fffffffffffffffffffffffffffffff5d576e7357a4501ddfe92f46681b20a08360001c11156122445760006003915091506122e2565b6000600187878787604051600081526020016040526040516122699493929190613ca1565b6020604051602081039080840390855afa15801561228b573d6000803e3d6000fd5b505050602060405103519050600073ffffffffffffffffffffffffffffffffffffffff168173ffffffffffffffffffffffffffffffffffffffff16036122d9576000600192509250506122e2565b80600092509250505b94509492505050565b600060048111156122ff576122fe613ce6565b5b81600481111561231257612311613ce6565b5b031561244e576001600481111561232c5761232b613ce6565b5b81600481111561233f5761233e613ce6565b5b0361237f576040517f08c379a000000000000000000000000000000000000000000000000000000000815260040161237690613d61565b60405180910390fd5b6002600481111561239357612392613ce6565b5b8160048111156123a6576123a5613ce6565b5b036123e6576040517f08c379a00000000000000000000000000000000000000000000000000000000081526004016123dd90613dcd565b60405180910390fd5b600360048111156123fa576123f9613ce6565b5b81600481111561240d5761240c613ce6565b5b0361244d576040517f08c379a000000000000000000000000000000000000000000000000000000000815260040161244490613e5f565b60405180910390fd5b5b50565b6001816000016000828254019250508190555050565b6124728383836128b7565b61248d61247e84610865565b61248784610865565b83611f5b565b505050565b600080600090506000608084901c11156124b457608083901c92506080810190505b6000604084901c11156124cf57604083901c92506040810190505b6000602084901c11156124ea57602083901c92506020810190505b6000601084901c111561250557601083901c92506010810190505b6000600884901c111561252057600883901c92506008810190505b6000600484901c111561253b57600483901c92506004810190505b6000600284901c111561255657600283901c92506002810190505b6000600184901c111561256a576001810190505b80915050919050565b60008183106125825781612584565b825b905092915050565b6000806000858054905090506000808214612652576125ae8760018403611f20565b6040518060400160405290816000820160009054906101000a900463ffffffff1663ffffffff1663ffffffff1681526020016000820160049054906101000a90047bffffffffffffffffffffffffffffffffffffffffffffffffffffffff167bffffffffffffffffffffffffffffffffffffffffffffffffffffffff167bffffffffffffffffffffffffffffffffffffffffffffffffffffffff168152505061268e565b6040518060400160405280600063ffffffff16815260200160007bffffffffffffffffffffffffffffffffffffffffffffffffffffffff168152505b905080602001517bffffffffffffffffffffffffffffffffffffffffffffffffffffffff1693506126c384868863ffffffff16565b92506000821180156126ed57506126d8610b73565b65ffffffffffff16816000015163ffffffff16145b1561275e576126fb836128bc565b6127088860018503611f20565b60000160046101000a8154817bffffffffffffffffffffffffffffffffffffffffffffffffffffffff02191690837bffffffffffffffffffffffffffffffffffffffffffffffffffffffff16021790555061285d565b866040518060400160405280612782612775610b73565b65ffffffffffff16611a2f565b63ffffffff168152602001612796866128bc565b7bffffffffffffffffffffffffffffffffffffffffffffffffffffffff168152509080600181540180825580915050600190039060005260206000200160009091909190915060008201518160000160006101000a81548163ffffffff021916908363ffffffff16021790555060208201518160000160046101000a8154817bffffffffffffffffffffffffffffffffffffffffffffffffffffffff02191690837bffffffffffffffffffffffffffffffffffffffffffffffffffffffff16021790555050505b5050935093915050565b60008060ff8360001c169050601f8111156128ae576040517fb3512b0c00000000000000000000000000000000000000000000000000000000815260040160405180910390fd5b80915050919050565b505050565b60007bffffffffffffffffffffffffffffffffffffffffffffffffffffffff801682111561291f576040517f08c379a000000000000000000000000000000000000000000000000000000000815260040161291690613ef1565b60405180910390fd5b819050919050565b6040518060400160405280600063ffffffff16815260200160007bffffffffffffffffffffffffffffffffffffffffffffffffffffffff1681525090565b600081519050919050565b600082825260208201905092915050565b60005b8381101561299f578082015181840152602081019050612984565b60008484015250505050565b6000601f19601f8301169050919050565b60006129c782612965565b6129d18185612970565b93506129e1818560208601612981565b6129ea816129ab565b840191505092915050565b60006020820190508181036000830152612a0f81846129bc565b905092915050565b600080fd5b600073ffffffffffffffffffffffffffffffffffffffff82169050919050565b6000612a4782612a1c565b9050919050565b612a5781612a3c565b8114612a6257600080fd5b50565b600081359050612a7481612a4e565b92915050565b6000819050919050565b612a8d81612a7a565b8114612a9857600080fd5b50565b600081359050612aaa81612a84565b92915050565b60008060408385031215612ac757612ac6612a17565b5b6000612ad585828601612a65565b9250506020612ae685828601612a9b565b9150509250929050565b60008115159050919050565b612b0581612af0565b82525050565b6000602082019050612b206000830184612afc565b92915050565b612b2f81612a7a565b82525050565b6000602082019050612b4a6000830184612b26565b92915050565b600080600060608486031215612b6957612b68612a17565b5b6000612b7786828701612a65565b9350506020612b8886828701612a65565b9250506040612b9986828701612a9b565b9150509250925092565b600060ff82169050919050565b612bb981612ba3565b82525050565b6000602082019050612bd46000830184612bb0565b92915050565b6000819050919050565b612bed81612bda565b82525050565b6000602082019050612c086000830184612be4565b92915050565b600060208284031215612c2457612c23612a17565b5b6000612c3284828501612a65565b91505092915050565b612c4481612a3c565b82525050565b6000602082019050612c5f6000830184612c3b565b92915050565b600063ffffffff82169050919050565b612c7e81612c65565b82525050565b6000602082019050612c996000830184612c75565b92915050565b60007fff0000000000000000000000000000000000000000000000000000000000000082169050919050565b612cd481612c9f565b82525050565b600081519050919050565b600082825260208201905092915050565b6000819050602082019050919050565b612d0f81612a7a565b82525050565b6000612d218383612d06565b60208301905092915050565b6000602082019050919050565b6000612d4582612cda565b612d4f8185612ce5565b9350612d5a83612cf6565b8060005b83811015612d8b578151612d728882612d15565b9750612d7d83612d2d565b925050600181019050612d5e565b5085935050505092915050565b600060e082019050612dad600083018a612ccb565b8181036020830152612dbf81896129bc565b90508181036040830152612dd381886129bc565b9050612de26060830187612b26565b612def6080830186612c3b565b612dfc60a0830185612be4565b81810360c0830152612e0e8184612d3a565b905098975050505050505050565b600060208284031215612e3257612e31612a17565b5b6000612e4084828501612a9b565b91505092915050565b600065ffffffffffff82169050919050565b612e6481612e49565b82525050565b6000602082019050612e7f6000830184612e5b565b92915050565b612e8e81612ba3565b8114612e9957600080fd5b50565b600081359050612eab81612e85565b92915050565b612eba81612bda565b8114612ec557600080fd5b50565b600081359050612ed781612eb1565b92915050565b60008060008060008060c08789031215612efa57612ef9612a17565b5b6000612f0889828a01612a65565b9650506020612f1989828a01612a9b565b9550506040612f2a89828a01612a9b565b9450506060612f3b89828a01612e9c565b9350506080612f4c89828a01612ec8565b92505060a0612f5d89828a01612ec8565b9150509295509295509295565b600080600080600080600060e0888a031215612f8957612f88612a17565b5b6000612f978a828b01612a65565b9750506020612fa88a828b01612a65565b9650506040612fb98a828b01612a9b565b9550506060612fca8a828b01612a9b565b9450506080612fdb8a828b01612e9c565b93505060a0612fec8a828b01612ec8565b92505060c0612ffd8a828b01612ec8565b91505092959891949750929550565b6000806040838503121561302357613022612a17565b5b600061303185828601612a65565b925050602061304285828601612a65565b9150509250929050565b61305581612c65565b811461306057600080fd5b50565b6000813590506130728161304c565b92915050565b6000806040838503121561308f5761308e612a17565b5b600061309d85828601612a65565b92505060206130ae85828601613063565b9150509250929050565b6130c181612c65565b82525050565b60007bffffffffffffffffffffffffffffffffffffffffffffffffffffffff82169050919050565b6130f8816130c7565b82525050565b60408201600082015161311460008501826130b8565b50602082015161312760208501826130ef565b50505050565b600060408201905061314260008301846130fe565b92915050565b7f4e487b7100000000000000000000000000000000000000000000000000000000600052602260045260246000fd5b6000600282049050600182168061318f57607f821691505b6020821081036131a2576131a1613148565b5b50919050565b7f4e487b7100000000000000000000000000000000000000000000000000000000600052601160045260246000fd5b60006131e282612a7a565b91506131ed83612a7a565b9250828201905080821115613205576132046131a8565b5b92915050565b7f4552433230566f7465733a20667574757265206c6f6f6b757000000000000000600082015250565b6000613241601983612970565b915061324c8261320b565b602082019050919050565b6000602082019050818103600083015261327081613234565b9050919050565b7f4552433230566f7465733a2062726f6b656e20636c6f636b206d6f6465000000600082015250565b60006132ad601d83612970565b91506132b882613277565b602082019050919050565b600060208201905081810360008301526132dc816132a0565b9050919050565b7f4e487b7100000000000000000000000000000000000000000000000000000000600052604160045260246000fd5b7f4e487b7100000000000000000000000000000000000000000000000000000000600052603260045260246000fd5b7f45524332303a2064656372656173656420616c6c6f77616e63652062656c6f7760008201527f207a65726f000000000000000000000000000000000000000000000000000000602082015250565b600061339d602583612970565b91506133a882613341565b604082019050919050565b600060208201905081810360008301526133cc81613390565b9050919050565b7f4552433230566f7465733a207369676e61747572652065787069726564000000600082015250565b6000613409601d83612970565b9150613414826133d3565b602082019050919050565b60006020820190508181036000830152613438816133fc565b9050919050565b60006080820190506134546000830187612be4565b6134616020830186612c3b565b61346e6040830185612b26565b61347b6060830184612b26565b95945050505050565b7f4552433230566f7465733a20696e76616c6964206e6f6e636500000000000000600082015250565b60006134ba601983612970565b91506134c582613484565b602082019050919050565b600060208201905081810360008301526134e9816134ad565b9050919050565b7f45524332305065726d69743a206578706972656420646561646c696e65000000600082015250565b6000613526601d83612970565b9150613531826134f0565b602082019050919050565b6000602082019050818103600083015261355581613519565b9050919050565b600060c0820190506135716000830189612be4565b61357e6020830188612c3b565b61358b6040830187612c3b565b6135986060830186612b26565b6135a56080830185612b26565b6135b260a0830184612b26565b979650505050505050565b7f45524332305065726d69743a20696e76616c6964207369676e61747572650000600082015250565b60006135f3601e83612970565b91506135fe826135bd565b602082019050919050565b60006020820190508181036000830152613622816135e6565b9050919050565b7f4f776e61626c653a206e6577206f776e657220697320746865207a65726f206160008201527f6464726573730000000000000000000000000000000000000000000000000000602082015250565b6000613685602683612970565b915061369082613629565b604082019050919050565b600060208201905081810360008301526136b481613678565b9050919050565b60006136c682612a7a565b91506136d183612a7a565b92508282039050818111156136e9576136e86131a8565b5b92915050565b7f45524332303a20617070726f76652066726f6d20746865207a65726f2061646460008201527f7265737300000000000000000000000000000000000000000000000000000000602082015250565b600061374b602483612970565b9150613756826136ef565b604082019050919050565b6000602082019050818103600083015261377a8161373e565b9050919050565b7f45524332303a20617070726f766520746f20746865207a65726f20616464726560008201527f7373000000000000000000000000000000000000000000000000000000000000602082015250565b60006137dd602283612970565b91506137e882613781565b604082019050919050565b6000602082019050818103600083015261380c816137d0565b9050919050565b7f45524332303a20696e73756666696369656e7420616c6c6f77616e6365000000600082015250565b6000613849601d83612970565b915061385482613813565b602082019050919050565b600060208201905081810360008301526138788161383c565b9050919050565b7f45524332303a207472616e736665722066726f6d20746865207a65726f20616460008201527f6472657373000000000000000000000000000000000000000000000000000000602082015250565b60006138db602583612970565b91506138e68261387f565b604082019050919050565b6000602082019050818103600083015261390a816138ce565b9050919050565b7f45524332303a207472616e7366657220746f20746865207a65726f206164647260008201527f6573730000000000000000000000000000000000000000000000000000000000602082015250565b600061396d602383612970565b915061397882613911565b604082019050919050565b6000602082019050818103600083015261399c81613960565b9050919050565b7f45524332303a207472616e7366657220616d6f756e742065786365656473206260008201527f616c616e63650000000000000000000000000000000000000000000000000000602082015250565b60006139ff602683612970565b9150613a0a826139a3565b604082019050919050565b60006020820190508181036000830152613a2e816139f2565b9050919050565b7f53616665436173743a2076616c756520646f65736e27742066697420696e203360008201527f3220626974730000000000000000000000000000000000000000000000000000602082015250565b6000613a91602683612970565b9150613a9c82613a35565b604082019050919050565b60006020820190508181036000830152613ac081613a84565b9050919050565b7f4f776e61626c653a2063616c6c6572206973206e6f7420746865206f776e6572600082015250565b6000613afd602083612970565b9150613b0882613ac7565b602082019050919050565b60006020820190508181036000830152613b2c81613af0565b9050919050565b7f53616665436173743a2076616c756520646f65736e27742066697420696e203460008201527f3820626974730000000000000000000000000000000000000000000000000000602082015250565b6000613b8f602683612970565b9150613b9a82613b33565b604082019050919050565b60006020820190508181036000830152613bbe81613b82565b9050919050565b600060a082019050613bda6000830188612be4565b613be76020830187612be4565b613bf46040830186612be4565b613c016060830185612b26565b613c0e6080830184612c3b565b9695505050505050565b7f4e487b7100000000000000000000000000000000000000000000000000000000600052601260045260246000fd5b6000613c5282612a7a565b9150613c5d83612a7a565b925082613c6d57613c6c613c18565b5b828204905092915050565b6000604082019050613c8d6000830185612b26565b613c9a6020830184612b26565b9392505050565b6000608082019050613cb66000830187612be4565b613cc36020830186612bb0565b613cd06040830185612be4565b613cdd6060830184612be4565b95945050505050565b7f4e487b7100000000000000000000000000000000000000000000000000000000600052602160045260246000fd5b7f45434453413a20696e76616c6964207369676e61747572650000000000000000600082015250565b6000613d4b601883612970565b9150613d5682613d15565b602082019050919050565b60006020820190508181036000830152613d7a81613d3e565b9050919050565b7f45434453413a20696e76616c6964207369676e6174757265206c656e67746800600082015250565b6000613db7601f83612970565b9150613dc282613d81565b602082019050919050565b60006020820190508181036000830152613de681613daa565b9050919050565b7f45434453413a20696e76616c6964207369676e6174757265202773272076616c60008201527f7565000000000000000000000000000000000000000000000000000000000000602082015250565b6000613e49602283612970565b9150613e5482613ded565b604082019050919050565b60006020820190508181036000830152613e7881613e3c565b9050919050565b7f53616665436173743a2076616c756520646f65736e27742066697420696e203260008201527f3234206269747300000000000000000000000000000000000000000000000000602082015250565b6000613edb602783612970565b9150613ee682613e7f565b604082019050919050565b60006020820190508181036000830152613f0a81613ece565b905091905056fea26469706673582212209185b66d6a45fc90cb9c370a9cc9a81967423f129aa1c433d6e248eac4673e7d64736f6c63430008130033",
  "immutableReferences": {
    "2908": [
      {
        "length": 32,
        "start": 6041
      }
    ],
    "2910": [
      {
        "length": 32,
        "start": 6000
      }
    ],
    "2912": [
      {
        "length": 32,
        "start": 5914
      }
    ],
    "2914": [
      {
        "length": 32,
        "start": 7606
      }
    ],
    "2916": [
      {
        "length": 32,
        "start": 7639
      }
    ],
    "2919": [
      {
        "length": 32,
        "start": 2549
      }
    ],
    "2922": [
      {
        "length": 32,
        "start": 2601
      }
    ]
  },
  "source": "// SPDX-License-Identifier: MIT\npragma solidity ^0.8.2;\n\nimport \"@openzeppelin/contracts/token/ERC20/ERC20.sol\";\nimport \"@openzeppelin/contracts/token/ERC20/extensions/draft-ERC20Permit.sol\";\nimport \"@openzeppelin/contracts/token/ERC20/extensions/ERC20Votes.sol\";\nimport \"@openzeppelin/contracts/access/Ownable.sol\";\n\ncontract HipostelToken is ERC20, ERC20Permit, ERC20Votes, Ownable {\n    constructor() ERC20(\"Hipostel\", \"HIP\") ERC20Permit(\"Hipostel\") {\n        _mint(msg.sender, 21000000 * 10 ** decimals());\n    }\n\n    // The following functions are overrides required by Solidity.\n\n    function _afterTokenTransfer(address from, address to, uint256 amount)\n        internal\n        override(ERC20, ERC20Votes)\n    {\n        super._afterTokenTransfer(from, to, amount);\n    }\n\n    function _mint(address to, uint256 amount)\n        internal\n        override(ERC20, ERC20Votes)\n    {\n        super._mint(to, amount);\n    }\n\n    function _burn(address account, uint256 amount)\n        internal\n        override(ERC20, ERC20Votes)\n    {\n        super._burn(account, amount);\n    }\n}",
  "sourcePath": "/Users/abhinil/Desktop/chimp-house/contracts/contracts/HipostelToken.sol",
  "compiler": {
    "name": "solc",
    "version": "0.8.19+commit.7dd6d404.Emscripten.clang"
  },
  "schemaVersion": "3.4.13",
  "updatedAt": "2023-06-18T09:37:39.959Z",
  "networkType": "ethereum",
  "devdoc": {
    "events": {
      "Approval(address,address,uint256)": {
        "details": "Emitted when the allowance of a `spender` for an `owner` is set by a call to {approve}. `value` is the new allowance."
      },
      "DelegateChanged(address,address,address)": {
        "details": "Emitted when an account changes their delegate."
      },
      "DelegateVotesChanged(address,uint256,uint256)": {
        "details": "Emitted when a token transfer or delegate change results in changes to a delegate's number of votes."
      },
      "EIP712DomainChanged()": {
        "details": "MAY be emitted to signal that the domain could have changed."
      },
      "Transfer(address,address,uint256)": {
        "details": "Emitted when `value` tokens are moved from one account (`from`) to another (`to`). Note that `value` may be zero."
      }
    },
    "kind": "dev",
    "methods": {
      "CLOCK_MODE()": {
        "details": "Description of the clock"
      },
      "DOMAIN_SEPARATOR()": {
        "details": "See {IERC20Permit-DOMAIN_SEPARATOR}."
      },
      "allowance(address,address)": {
        "details": "See {IERC20-allowance}."
      },
      "approve(address,uint256)": {
        "details": "See {IERC20-approve}. NOTE: If `amount` is the maximum `uint256`, the allowance is not updated on `transferFrom`. This is semantically equivalent to an infinite approval. Requirements: - `spender` cannot be the zero address."
      },
      "balanceOf(address)": {
        "details": "See {IERC20-balanceOf}."
      },
      "checkpoints(address,uint32)": {
        "details": "Get the `pos`-th checkpoint for `account`."
      },
      "clock()": {
        "details": "Clock used for flagging checkpoints. Can be overridden to implement timestamp based checkpoints (and voting)."
      },
      "decimals()": {
        "details": "Returns the number of decimals used to get its user representation. For example, if `decimals` equals `2`, a balance of `505` tokens should be displayed to a user as `5.05` (`505 / 10 ** 2`). Tokens usually opt for a value of 18, imitating the relationship between Ether and Wei. This is the default value returned by this function, unless it's overridden. NOTE: This information is only used for _display_ purposes: it in no way affects any of the arithmetic of the contract, including {IERC20-balanceOf} and {IERC20-transfer}."
      },
      "decreaseAllowance(address,uint256)": {
        "details": "Atomically decreases the allowance granted to `spender` by the caller. This is an alternative to {approve} that can be used as a mitigation for problems described in {IERC20-approve}. Emits an {Approval} event indicating the updated allowance. Requirements: - `spender` cannot be the zero address. - `spender` must have allowance for the caller of at least `subtractedValue`."
      },
      "delegate(address)": {
        "details": "Delegate votes from the sender to `delegatee`."
      },
      "delegateBySig(address,uint256,uint256,uint8,bytes32,bytes32)": {
        "details": "Delegates votes from signer to `delegatee`"
      },
      "delegates(address)": {
        "details": "Get the address `account` is currently delegating to."
      },
      "eip712Domain()": {
        "details": "See {EIP-5267}. _Available since v4.9._"
      },
      "getPastTotalSupply(uint256)": {
        "details": "Retrieve the `totalSupply` at the end of `timepoint`. Note, this value is the sum of all balances. It is NOT the sum of all the delegated votes! Requirements: - `timepoint` must be in the past"
      },
      "getPastVotes(address,uint256)": {
        "details": "Retrieve the number of votes for `account` at the end of `timepoint`. Requirements: - `timepoint` must be in the past"
      },
      "getVotes(address)": {
        "details": "Gets the current votes balance for `account`"
      },
      "increaseAllowance(address,uint256)": {
        "details": "Atomically increases the allowance granted to `spender` by the caller. This is an alternative to {approve} that can be used as a mitigation for problems described in {IERC20-approve}. Emits an {Approval} event indicating the updated allowance. Requirements: - `spender` cannot be the zero address."
      },
      "name()": {
        "details": "Returns the name of the token."
      },
      "nonces(address)": {
        "details": "See {IERC20Permit-nonces}."
      },
      "numCheckpoints(address)": {
        "details": "Get number of checkpoints for `account`."
      },
      "owner()": {
        "details": "Returns the address of the current owner."
      },
      "permit(address,address,uint256,uint256,uint8,bytes32,bytes32)": {
        "details": "See {IERC20Permit-permit}."
      },
      "renounceOwnership()": {
        "details": "Leaves the contract without owner. It will not be possible to call `onlyOwner` functions. Can only be called by the current owner. NOTE: Renouncing ownership will leave the contract without an owner, thereby disabling any functionality that is only available to the owner."
      },
      "symbol()": {
        "details": "Returns the symbol of the token, usually a shorter version of the name."
      },
      "totalSupply()": {
        "details": "See {IERC20-totalSupply}."
      },
      "transfer(address,uint256)": {
        "details": "See {IERC20-transfer}. Requirements: - `to` cannot be the zero address. - the caller must have a balance of at least `amount`."
      },
      "transferFrom(address,address,uint256)": {
        "details": "See {IERC20-transferFrom}. Emits an {Approval} event indicating the updated allowance. This is not required by the EIP. See the note at the beginning of {ERC20}. NOTE: Does not update the allowance if the current allowance is the maximum `uint256`. Requirements: - `from` and `to` cannot be the zero address. - `from` must have a balance of at least `amount`. - the caller must have allowance for ``from``'s tokens of at least `amount`."
      },
      "transferOwnership(address)": {
        "details": "Transfers ownership of the contract to a new account (`newOwner`). Can only be called by the current owner."
      }
    },
    "version": 1
  },
  "userdoc": {
    "kind": "user",
    "methods": {},
    "version": 1
  }
}