{
	"data": {
		"bytecode": {
			"linkReferences": {},
			"object": "608060405234801562000010575f80fd5b50604051620022b5380380620022b58339810160408190526200003391620003f7565b83838383620000515f80516020620022358339815191528062000225565b620000795f80516020620022558339815191525f805160206200223583398151915262000225565b620000a15f80516020620022758339815191525f805160206200223583398151915262000225565b620000c95f80516020620022958339815191525f805160206200223583398151915262000225565b620000e35f8051602062002235833981519152306200026f565b6001600160a01b038116156200010d576200010d5f8051602062002235833981519152826200026f565b5f5b83518110156200019057620001555f805160206200225583398151915285838151811062000141576200014162000479565b60200260200101516200026f60201b60201c565b6200017d5f805160206200229583398151915285838151811062000141576200014162000479565b62000188816200048d565b90506200010f565b505f5b8251811015620001d857620001c55f805160206200227583398151915284838151811062000141576200014162000479565b620001d0816200048d565b905062000193565b506002849055604080515f8152602081018690527f11c24f4ead16507c69ac467fbd5e4eed5fb5c699626d2cc6d66421df253886d5910160405180910390a15050505050505050620004b2565b5f82815260208190526040808220600101805490849055905190918391839186917fbd79b86ffe0ab8e8776151514217cd7cacd52c909f66475c3af44e129f0b00ff9190a4505050565b6200027b82826200027f565b5050565b5f828152602081815260408083206001600160a01b038516845290915290205460ff166200027b575f828152602081815260408083206001600160a01b03851684529091529020805460ff19166001179055620002d93390565b6001600160a01b0316816001600160a01b0316837f2f8788117e7eff1d82e926ec794901d17c78024a50270940304540a733656f0d60405160405180910390a45050565b634e487b7160e01b5f52604160045260245ffd5b80516001600160a01b038116811462000348575f80fd5b919050565b5f82601f8301126200035d575f80fd5b815160206001600160401b03808311156200037c576200037c6200031d565b8260051b604051601f19603f83011681018181108482111715620003a457620003a46200031d565b604052938452858101830193838101925087851115620003c2575f80fd5b83870191505b84821015620003ec57620003dc8262000331565b83529183019190830190620003c8565b979650505050505050565b5f805f80608085870312156200040b575f80fd5b845160208601519094506001600160401b03808211156200042a575f80fd5b62000438888389016200034d565b945060408701519150808211156200044e575f80fd5b506200045d878288016200034d565b9250506200046e6060860162000331565b905092959194509250565b634e487b7160e01b5f52603260045260245ffd5b5f60018201620004ab57634e487b7160e01b5f52601160045260245ffd5b5060010190565b611d7580620004c05f395ff3fe6080604052600436106101b2575f3560e01c80638065657f116100e7578063bc197c8111610087578063d547741f11610062578063d547741f1461055d578063e38335e51461057c578063f23a6e611461058f578063f27a0c92146105ba575f80fd5b8063bc197c81146104e8578063c4d252f514610513578063d45c443514610532575f80fd5b806391d14854116100c257806391d1485414610464578063a217fddf14610483578063b08e51c014610496578063b1c5f427146104c9575f80fd5b80638065657f146103f35780638f2a0bb0146104125780638f61f4f514610431575f80fd5b8063248a9ca31161015257806331d507501161012d57806331d507501461037757806336568abe14610396578063584b153e146103b557806364d62353146103d4575f80fd5b8063248a9ca3146102fb5780632ab0f529146103295780632f2ff15d14610358575f80fd5b80630d3cf6fc1161018d5780630d3cf6fc14610253578063134008d31461028657806313bc9f2014610299578063150b7a02146102b8575f80fd5b806301d5062a146101bd57806301ffc9a7146101de57806307bd026514610212575f80fd5b366101b957005b5f80fd5b3480156101c8575f80fd5b506101dc6101d73660046113ee565b6105ce565b005b3480156101e9575f80fd5b506101fd6101f836600461145c565b6106a2565b60405190151581526020015b60405180910390f35b34801561021d575f80fd5b506102457fd8aa0f3194971a2a116679f7c2090f6939c8d4e01a2a8d7e41d55e5351469e6381565b604051908152602001610209565b34801561025e575f80fd5b506102457f5f58e3a2316349923ce3780f8d587db2d72378aed66a8261c916544fa6846ca581565b6101dc610294366004611483565b6106cc565b3480156102a4575f80fd5b506101fd6102b33660046114e9565b61077e565b3480156102c3575f80fd5b506102e26102d23660046115af565b630a85bd0160e11b949350505050565b6040516001600160e01b03199091168152602001610209565b348015610306575f80fd5b506102456103153660046114e9565b5f9081526020819052604090206001015490565b348015610334575f80fd5b506101fd6103433660046114e9565b5f908152600160208190526040909120541490565b348015610363575f80fd5b506101dc610372366004611612565b6107a3565b348015610382575f80fd5b506101fd6103913660046114e9565b6107cc565b3480156103a1575f80fd5b506101dc6103b0366004611612565b6107e4565b3480156103c0575f80fd5b506101fd6103cf3660046114e9565b610867565b3480156103df575f80fd5b506101dc6103ee3660046114e9565b61087c565b3480156103fe575f80fd5b5061024561040d366004611483565b610920565b34801561041d575f80fd5b506101dc61042c36600461167c565b61095e565b34801561043c575f80fd5b506102457fb09aa5aeb3702cfd50b6b62bc4532604938f21248a27a1d5ca736082b6819cc181565b34801561046f575f80fd5b506101fd61047e366004611612565b610aef565b34801561048e575f80fd5b506102455f81565b3480156104a1575f80fd5b506102457ffd643c72710c63c0180259aba6b2d05451e3591a24e58b62239378085726f78381565b3480156104d4575f80fd5b506102456104e3366004611724565b610b17565b3480156104f3575f80fd5b506102e2610502366004611840565b63bc197c8160e01b95945050505050565b34801561051e575f80fd5b506101dc61052d3660046114e9565b610b5b565b34801561053d575f80fd5b5061024561054c3660046114e9565b5f9081526001602052604090205490565b348015610568575f80fd5b506101dc610577366004611612565b610c2f565b6101dc61058a366004611724565b610c53565b34801561059a575f80fd5b506102e26105a93660046118e2565b63f23a6e6160e01b95945050505050565b3480156105c5575f80fd5b50600254610245565b7fb09aa5aeb3702cfd50b6b62bc4532604938f21248a27a1d5ca736082b6819cc16105f881610dd7565b5f610607898989898989610920565b90506106138184610de4565b5f817f4cf4410cc57040e44862ef0f45f3dd5a5e02db8eb8add648d4b0e236f1d07dca8b8b8b8b8b8a60405161064e96959493929190611969565b60405180910390a3831561069757807f20fda5fd27a1ea7bf5b9567f143ac5470bb059374a27e8f67cb44f946f6d03878560405161068e91815260200190565b60405180910390a25b505050505050505050565b5f6001600160e01b03198216630271189760e51b14806106c657506106c682610ed2565b92915050565b7fd8aa0f3194971a2a116679f7c2090f6939c8d4e01a2a8d7e41d55e5351469e636106f7815f610aef565b610705576107058133610f06565b5f610714888888888888610920565b90506107208185610f5f565b61072c88888888610ffa565b5f817fc2617efa69bab66782fa219543714338489c4e9e178271560a91b82c3f612b588a8a8a8a60405161076394939291906119a5565b60405180910390a3610774816110c9565b5050505050505050565b5f8181526001602052604081205460018111801561079c5750428111155b9392505050565b5f828152602081905260409020600101546107bd81610dd7565b6107c78383611101565b505050565b5f8181526001602052604081205481905b1192915050565b6001600160a01b03811633146108595760405162461bcd60e51b815260206004820152602f60248201527f416363657373436f6e74726f6c3a2063616e206f6e6c792072656e6f756e636560448201526e103937b632b9903337b91039b2b63360891b60648201526084015b60405180910390fd5b6108638282611184565b5050565b5f8181526001602081905260408220546107dd565b3330146108df5760405162461bcd60e51b815260206004820152602b60248201527f54696d656c6f636b436f6e74726f6c6c65723a2063616c6c6572206d7573742060448201526a62652074696d656c6f636b60a81b6064820152608401610850565b60025460408051918252602082018390527f11c24f4ead16507c69ac467fbd5e4eed5fb5c699626d2cc6d66421df253886d5910160405180910390a1600255565b5f86868686868660405160200161093c96959493929190611969565b6040516020818303038152906040528051906020012090509695505050505050565b7fb09aa5aeb3702cfd50b6b62bc4532604938f21248a27a1d5ca736082b6819cc161098881610dd7565b8887146109a75760405162461bcd60e51b8152600401610850906119d6565b8885146109c65760405162461bcd60e51b8152600401610850906119d6565b5f6109d78b8b8b8b8b8b8b8b610b17565b90506109e38184610de4565b5f5b8a811015610aa05780827f4cf4410cc57040e44862ef0f45f3dd5a5e02db8eb8add648d4b0e236f1d07dca8e8e85818110610a2257610a22611a19565b9050602002016020810190610a379190611a2d565b8d8d86818110610a4957610a49611a19565b905060200201358c8c87818110610a6257610a62611a19565b9050602002810190610a749190611a46565b8c8b604051610a8896959493929190611969565b60405180910390a3610a9981611a9c565b90506109e5565b508315610ae257807f20fda5fd27a1ea7bf5b9567f143ac5470bb059374a27e8f67cb44f946f6d038785604051610ad991815260200190565b60405180910390a25b5050505050505050505050565b5f918252602082815260408084206001600160a01b0393909316845291905290205460ff1690565b5f8888888888888888604051602001610b37989796959493929190611b40565b60405160208183030381529060405280519060200120905098975050505050505050565b7ffd643c72710c63c0180259aba6b2d05451e3591a24e58b62239378085726f783610b8581610dd7565b610b8e82610867565b610bf45760405162461bcd60e51b815260206004820152603160248201527f54696d656c6f636b436f6e74726f6c6c65723a206f7065726174696f6e2063616044820152701b9b9bdd0818994818d85b98d95b1b1959607a1b6064820152608401610850565b5f828152600160205260408082208290555183917fbaa1eb22f2a492ba1a5fea61b8df4d27c6c8b5f3971e63bb58fa14ff72eedb7091a25050565b5f82815260208190526040902060010154610c4981610dd7565b6107c78383611184565b7fd8aa0f3194971a2a116679f7c2090f6939c8d4e01a2a8d7e41d55e5351469e63610c7e815f610aef565b610c8c57610c8c8133610f06565b878614610cab5760405162461bcd60e51b8152600401610850906119d6565b878414610cca5760405162461bcd60e51b8152600401610850906119d6565b5f610cdb8a8a8a8a8a8a8a8a610b17565b9050610ce78185610f5f565b5f5b89811015610dc1575f8b8b83818110610d0457610d04611a19565b9050602002016020810190610d199190611a2d565b90505f8a8a84818110610d2e57610d2e611a19565b905060200201359050365f8a8a86818110610d4b57610d4b611a19565b9050602002810190610d5d9190611a46565b91509150610d6d84848484610ffa565b84867fc2617efa69bab66782fa219543714338489c4e9e178271560a91b82c3f612b5886868686604051610da494939291906119a5565b60405180910390a35050505080610dba90611a9c565b9050610ce9565b50610dcb816110c9565b50505050505050505050565b610de18133610f06565b50565b610ded826107cc565b15610e525760405162461bcd60e51b815260206004820152602f60248201527f54696d656c6f636b436f6e74726f6c6c65723a206f7065726174696f6e20616c60448201526e1c9958591e481cd8da19591d5b1959608a1b6064820152608401610850565b600254811015610eb35760405162461bcd60e51b815260206004820152602660248201527f54696d656c6f636b436f6e74726f6c6c65723a20696e73756666696369656e746044820152652064656c617960d01b6064820152608401610850565b610ebd8142611bdf565b5f928352600160205260409092209190915550565b5f6001600160e01b03198216637965db0b60e01b14806106c657506301ffc9a760e01b6001600160e01b03198316146106c6565b610f108282610aef565b61086357610f1d816111e8565b610f288360206111fa565b604051602001610f39929190611c14565b60408051601f198184030181529082905262461bcd60e51b825261085091600401611c88565b610f688261077e565b610f845760405162461bcd60e51b815260040161085090611cba565b801580610f9f57505f81815260016020819052604090912054145b6108635760405162461bcd60e51b815260206004820152602660248201527f54696d656c6f636b436f6e74726f6c6c65723a206d697373696e6720646570656044820152656e64656e637960d01b6064820152608401610850565b5f846001600160a01b0316848484604051611016929190611d04565b5f6040518083038185875af1925050503d805f8114611050576040519150601f19603f3d011682016040523d82523d5f602084013e611055565b606091505b50509050806110c25760405162461bcd60e51b815260206004820152603360248201527f54696d656c6f636b436f6e74726f6c6c65723a20756e6465726c79696e6720746044820152721c985b9cd858dd1a5bdb881c995d995c9d1959606a1b6064820152608401610850565b5050505050565b6110d28161077e565b6110ee5760405162461bcd60e51b815260040161085090611cba565b5f90815260016020819052604090912055565b61110b8282610aef565b610863575f828152602081815260408083206001600160a01b03851684529091529020805460ff191660011790556111403390565b6001600160a01b0316816001600160a01b0316837f2f8788117e7eff1d82e926ec794901d17c78024a50270940304540a733656f0d60405160405180910390a45050565b61118e8282610aef565b15610863575f828152602081815260408083206001600160a01b0385168085529252808320805460ff1916905551339285917ff6391f5c32d9c69d2a47ea670b442974b53935d1edc7fd64eb21e047a839171b9190a45050565b60606106c66001600160a01b03831660145b60605f611208836002611d13565b611213906002611bdf565b6001600160401b0381111561122a5761122a611500565b6040519080825280601f01601f191660200182016040528015611254576020820181803683370190505b509050600360fc1b815f8151811061126e5761126e611a19565b60200101906001600160f81b03191690815f1a905350600f60fb1b8160018151811061129c5761129c611a19565b60200101906001600160f81b03191690815f1a9053505f6112be846002611d13565b6112c9906001611bdf565b90505b6001811115611340576f181899199a1a9b1b9c1cb0b131b232b360811b85600f16601081106112fd576112fd611a19565b1a60f81b82828151811061131357611313611a19565b60200101906001600160f81b03191690815f1a90535060049490941c9361133981611d2a565b90506112cc565b50831561079c5760405162461bcd60e51b815260206004820181905260248201527f537472696e67733a20686578206c656e67746820696e73756666696369656e746044820152606401610850565b80356001600160a01b03811681146113a5575f80fd5b919050565b5f8083601f8401126113ba575f80fd5b5081356001600160401b038111156113d0575f80fd5b6020830191508360208285010111156113e7575f80fd5b9250929050565b5f805f805f805f60c0888a031215611404575f80fd5b61140d8861138f565b96506020880135955060408801356001600160401b0381111561142e575f80fd5b61143a8a828b016113aa565b989b979a50986060810135976080820135975060a09091013595509350505050565b5f6020828403121561146c575f80fd5b81356001600160e01b03198116811461079c575f80fd5b5f805f805f8060a08789031215611498575f80fd5b6114a18761138f565b95506020870135945060408701356001600160401b038111156114c2575f80fd5b6114ce89828a016113aa565b979a9699509760608101359660809091013595509350505050565b5f602082840312156114f9575f80fd5b5035919050565b634e487b7160e01b5f52604160045260245ffd5b604051601f8201601f191681016001600160401b038111828210171561153c5761153c611500565b604052919050565b5f82601f830112611553575f80fd5b81356001600160401b0381111561156c5761156c611500565b61157f601f8201601f1916602001611514565b818152846020838601011115611593575f80fd5b816020850160208301375f918101602001919091529392505050565b5f805f80608085870312156115c2575f80fd5b6115cb8561138f565b93506115d96020860161138f565b92506040850135915060608501356001600160401b038111156115fa575f80fd5b61160687828801611544565b91505092959194509250565b5f8060408385031215611623575f80fd5b823591506116336020840161138f565b90509250929050565b5f8083601f84011261164c575f80fd5b5081356001600160401b03811115611662575f80fd5b6020830191508360208260051b85010111156113e7575f80fd5b5f805f805f805f805f60c08a8c031215611694575f80fd5b89356001600160401b03808211156116aa575f80fd5b6116b68d838e0161163c565b909b50995060208c01359150808211156116ce575f80fd5b6116da8d838e0161163c565b909950975060408c01359150808211156116f2575f80fd5b506116ff8c828d0161163c565b9a9d999c50979a969997986060880135976080810135975060a0013595509350505050565b5f805f805f805f8060a0898b03121561173b575f80fd5b88356001600160401b0380821115611751575f80fd5b61175d8c838d0161163c565b909a50985060208b0135915080821115611775575f80fd5b6117818c838d0161163c565b909850965060408b0135915080821115611799575f80fd5b506117a68b828c0161163c565b999c989b509699959896976060870135966080013595509350505050565b5f82601f8301126117d3575f80fd5b813560206001600160401b038211156117ee576117ee611500565b8160051b6117fd828201611514565b9283528481018201928281019087851115611816575f80fd5b83870192505b848310156118355782358252918301919083019061181c565b979650505050505050565b5f805f805f60a08688031215611854575f80fd5b61185d8661138f565b945061186b6020870161138f565b935060408601356001600160401b0380821115611886575f80fd5b61189289838a016117c4565b945060608801359150808211156118a7575f80fd5b6118b389838a016117c4565b935060808801359150808211156118c8575f80fd5b506118d588828901611544565b9150509295509295909350565b5f805f805f60a086880312156118f6575f80fd5b6118ff8661138f565b945061190d6020870161138f565b9350604086013592506060860135915060808601356001600160401b03811115611935575f80fd5b6118d588828901611544565b81835281816020850137505f828201602090810191909152601f909101601f19169091010190565b60018060a01b038716815285602082015260a060408201525f61199060a083018688611941565b60608301949094525060800152949350505050565b60018060a01b0385168152836020820152606060408201525f6119cc606083018486611941565b9695505050505050565b60208082526023908201527f54696d656c6f636b436f6e74726f6c6c65723a206c656e677468206d69736d616040820152620e8c6d60eb1b606082015260800190565b634e487b7160e01b5f52603260045260245ffd5b5f60208284031215611a3d575f80fd5b61079c8261138f565b5f808335601e19843603018112611a5b575f80fd5b8301803591506001600160401b03821115611a74575f80fd5b6020019150368190038213156113e7575f80fd5b634e487b7160e01b5f52601160045260245ffd5b5f60018201611aad57611aad611a88565b5060010190565b8183525f6020808501808196508560051b81019150845f5b87811015611b335782840389528135601e19883603018112611aec575f80fd5b870185810190356001600160401b03811115611b06575f80fd5b803603821315611b14575f80fd5b611b1f868284611941565b9a87019a9550505090840190600101611acc565b5091979650505050505050565b60a080825281018890525f8960c08301825b8b811015611b80576001600160a01b03611b6b8461138f565b16825260209283019290910190600101611b52565b5083810360208501528881526001600160fb1b03891115611b9f575f80fd5b8860051b9150818a60208301370182810360209081016040850152611bc79082018789611ab4565b60608401959095525050608001529695505050505050565b808201808211156106c6576106c6611a88565b5f5b83811015611c0c578181015183820152602001611bf4565b50505f910152565b7f416363657373436f6e74726f6c3a206163636f756e742000000000000000000081525f8351611c4b816017850160208801611bf2565b7001034b99036b4b9b9b4b733903937b6329607d1b6017918401918201528351611c7c816028840160208801611bf2565b01602801949350505050565b602081525f8251806020840152611ca6816040850160208701611bf2565b601f01601f19169190910160400192915050565b6020808252602a908201527f54696d656c6f636b436f6e74726f6c6c65723a206f7065726174696f6e206973604082015269206e6f7420726561647960b01b606082015260800190565b818382375f9101908152919050565b80820281158282048414176106c6576106c6611a88565b5f81611d3857611d38611a88565b505f19019056fea26469706673582212206d5c27212ae9e63cbafe0f1470e542e1420333f7bf9e233c3aec420e7fbaa1d464736f6c634300081400335f58e3a2316349923ce3780f8d587db2d72378aed66a8261c916544fa6846ca5b09aa5aeb3702cfd50b6b62bc4532604938f21248a27a1d5ca736082b6819cc1d8aa0f3194971a2a116679f7c2090f6939c8d4e01a2a8d7e41d55e5351469e63fd643c72710c63c0180259aba6b2d05451e3591a24e58b62239378085726f783",
			"opcodes": "PUSH1 0x80 PUSH1 0x40 MSTORE CALLVALUE DUP1 ISZERO PUSH3 0x10 JUMPI PUSH0 DUP1 REVERT JUMPDEST POP PUSH1 0x40 MLOAD PUSH3 0x22B5 CODESIZE SUB DUP1 PUSH3 0x22B5 DUP4 CODECOPY DUP2 ADD PUSH1 0x40 DUP2 SWAP1 MSTORE PUSH3 0x33 SWAP2 PUSH3 0x3F7 JUMP JUMPDEST DUP4 DUP4 DUP4 DUP4 PUSH3 0x51 PUSH0 DUP1 MLOAD PUSH1 0x20 PUSH3 0x2235 DUP4 CODECOPY DUP2 MLOAD SWAP2 MSTORE DUP1 PUSH3 0x225 JUMP JUMPDEST PUSH3 0x79 PUSH0 DUP1 MLOAD PUSH1 0x20 PUSH3 0x2255 DUP4 CODECOPY DUP2 MLOAD SWAP2 MSTORE PUSH0 DUP1 MLOAD PUSH1 0x20 PUSH3 0x2235 DUP4 CODECOPY DUP2 MLOAD SWAP2 MSTORE PUSH3 0x225 JUMP JUMPDEST PUSH3 0xA1 PUSH0 DUP1 MLOAD PUSH1 0x20 PUSH3 0x2275 DUP4 CODECOPY DUP2 MLOAD SWAP2 MSTORE PUSH0 DUP1 MLOAD PUSH1 0x20 PUSH3 0x2235 DUP4 CODECOPY DUP2 MLOAD SWAP2 MSTORE PUSH3 0x225 JUMP JUMPDEST PUSH3 0xC9 PUSH0 DUP1 MLOAD PUSH1 0x20 PUSH3 0x2295 DUP4 CODECOPY DUP2 MLOAD SWAP2 MSTORE PUSH0 DUP1 MLOAD PUSH1 0x20 PUSH3 0x2235 DUP4 CODECOPY DUP2 MLOAD SWAP2 MSTORE PUSH3 0x225 JUMP JUMPDEST PUSH3 0xE3 PUSH0 DUP1 MLOAD PUSH1 0x20 PUSH3 0x2235 DUP4 CODECOPY DUP2 MLOAD SWAP2 MSTORE ADDRESS PUSH3 0x26F JUMP JUMPDEST PUSH1 0x1 PUSH1 0x1 PUSH1 0xA0 SHL SUB DUP2 AND ISZERO PUSH3 0x10D JUMPI PUSH3 0x10D PUSH0 DUP1 MLOAD PUSH1 0x20 PUSH3 0x2235 DUP4 CODECOPY DUP2 MLOAD SWAP2 MSTORE DUP3 PUSH3 0x26F JUMP JUMPDEST PUSH0 JUMPDEST DUP4 MLOAD DUP2 LT ISZERO PUSH3 0x190 JUMPI PUSH3 0x155 PUSH0 DUP1 MLOAD PUSH1 0x20 PUSH3 0x2255 DUP4 CODECOPY DUP2 MLOAD SWAP2 MSTORE DUP6 DUP4 DUP2 MLOAD DUP2 LT PUSH3 0x141 JUMPI PUSH3 0x141 PUSH3 0x479 JUMP JUMPDEST PUSH1 0x20 MUL PUSH1 0x20 ADD ADD MLOAD PUSH3 0x26F PUSH1 0x20 SHL PUSH1 0x20 SHR JUMP JUMPDEST PUSH3 0x17D PUSH0 DUP1 MLOAD PUSH1 0x20 PUSH3 0x2295 DUP4 CODECOPY DUP2 MLOAD SWAP2 MSTORE DUP6 DUP4 DUP2 MLOAD DUP2 LT PUSH3 0x141 JUMPI PUSH3 0x141 PUSH3 0x479 JUMP JUMPDEST PUSH3 0x188 DUP2 PUSH3 0x48D JUMP JUMPDEST SWAP1 POP PUSH3 0x10F JUMP JUMPDEST POP PUSH0 JUMPDEST DUP3 MLOAD DUP2 LT ISZERO PUSH3 0x1D8 JUMPI PUSH3 0x1C5 PUSH0 DUP1 MLOAD PUSH1 0x20 PUSH3 0x2275 DUP4 CODECOPY DUP2 MLOAD SWAP2 MSTORE DUP5 DUP4 DUP2 MLOAD DUP2 LT PUSH3 0x141 JUMPI PUSH3 0x141 PUSH3 0x479 JUMP JUMPDEST PUSH3 0x1D0 DUP2 PUSH3 0x48D JUMP JUMPDEST SWAP1 POP PUSH3 0x193 JUMP JUMPDEST POP PUSH1 0x2 DUP5 SWAP1 SSTORE PUSH1 0x40 DUP1 MLOAD PUSH0 DUP2 MSTORE PUSH1 0x20 DUP2 ADD DUP7 SWAP1 MSTORE PUSH32 0x11C24F4EAD16507C69AC467FBD5E4EED5FB5C699626D2CC6D66421DF253886D5 SWAP2 ADD PUSH1 0x40 MLOAD DUP1 SWAP2 SUB SWAP1 LOG1 POP POP POP POP POP POP POP POP PUSH3 0x4B2 JUMP JUMPDEST PUSH0 DUP3 DUP2 MSTORE PUSH1 0x20 DUP2 SWAP1 MSTORE PUSH1 0x40 DUP1 DUP3 KECCAK256 PUSH1 0x1 ADD DUP1 SLOAD SWAP1 DUP5 SWAP1 SSTORE SWAP1 MLOAD SWAP1 SWAP2 DUP4 SWAP2 DUP4 SWAP2 DUP7 SWAP2 PUSH32 0xBD79B86FFE0AB8E8776151514217CD7CACD52C909F66475C3AF44E129F0B00FF SWAP2 SWAP1 LOG4 POP POP POP JUMP JUMPDEST PUSH3 0x27B DUP3 DUP3 PUSH3 0x27F JUMP JUMPDEST POP POP JUMP JUMPDEST PUSH0 DUP3 DUP2 MSTORE PUSH1 0x20 DUP2 DUP2 MSTORE PUSH1 0x40 DUP1 DUP4 KECCAK256 PUSH1 0x1 PUSH1 0x1 PUSH1 0xA0 SHL SUB DUP6 AND DUP5 MSTORE SWAP1 SWAP2 MSTORE SWAP1 KECCAK256 SLOAD PUSH1 0xFF AND PUSH3 0x27B JUMPI PUSH0 DUP3 DUP2 MSTORE PUSH1 0x20 DUP2 DUP2 MSTORE PUSH1 0x40 DUP1 DUP4 KECCAK256 PUSH1 0x1 PUSH1 0x1 PUSH1 0xA0 SHL SUB DUP6 AND DUP5 MSTORE SWAP1 SWAP2 MSTORE SWAP1 KECCAK256 DUP1 SLOAD PUSH1 0xFF NOT AND PUSH1 0x1 OR SWAP1 SSTORE PUSH3 0x2D9 CALLER SWAP1 JUMP JUMPDEST PUSH1 0x1 PUSH1 0x1 PUSH1 0xA0 SHL SUB AND DUP2 PUSH1 0x1 PUSH1 0x1 PUSH1 0xA0 SHL SUB AND DUP4 PUSH32 0x2F8788117E7EFF1D82E926EC794901D17C78024A50270940304540A733656F0D PUSH1 0x40 MLOAD PUSH1 0x40 MLOAD DUP1 SWAP2 SUB SWAP1 LOG4 POP POP JUMP JUMPDEST PUSH4 0x4E487B71 PUSH1 0xE0 SHL PUSH0 MSTORE PUSH1 0x41 PUSH1 0x4 MSTORE PUSH1 0x24 PUSH0 REVERT JUMPDEST DUP1 MLOAD PUSH1 0x1 PUSH1 0x1 PUSH1 0xA0 SHL SUB DUP2 AND DUP2 EQ PUSH3 0x348 JUMPI PUSH0 DUP1 REVERT JUMPDEST SWAP2 SWAP1 POP JUMP JUMPDEST PUSH0 DUP3 PUSH1 0x1F DUP4 ADD SLT PUSH3 0x35D JUMPI PUSH0 DUP1 REVERT JUMPDEST DUP2 MLOAD PUSH1 0x20 PUSH1 0x1 PUSH1 0x1 PUSH1 0x40 SHL SUB DUP1 DUP4 GT ISZERO PUSH3 0x37C JUMPI PUSH3 0x37C PUSH3 0x31D JUMP JUMPDEST DUP3 PUSH1 0x5 SHL PUSH1 0x40 MLOAD PUSH1 0x1F NOT PUSH1 0x3F DUP4 ADD AND DUP2 ADD DUP2 DUP2 LT DUP5 DUP3 GT OR ISZERO PUSH3 0x3A4 JUMPI PUSH3 0x3A4 PUSH3 0x31D JUMP JUMPDEST PUSH1 0x40 MSTORE SWAP4 DUP5 MSTORE DUP6 DUP2 ADD DUP4 ADD SWAP4 DUP4 DUP2 ADD SWAP3 POP DUP8 DUP6 GT ISZERO PUSH3 0x3C2 JUMPI PUSH0 DUP1 REVERT JUMPDEST DUP4 DUP8 ADD SWAP2 POP JUMPDEST DUP5 DUP3 LT ISZERO PUSH3 0x3EC JUMPI PUSH3 0x3DC DUP3 PUSH3 0x331 JUMP JUMPDEST DUP4 MSTORE SWAP2 DUP4 ADD SWAP2 SWAP1 DUP4 ADD SWAP1 PUSH3 0x3C8 JUMP JUMPDEST SWAP8 SWAP7 POP POP POP POP POP POP POP JUMP JUMPDEST PUSH0 DUP1 PUSH0 DUP1 PUSH1 0x80 DUP6 DUP8 SUB SLT ISZERO PUSH3 0x40B JUMPI PUSH0 DUP1 REVERT JUMPDEST DUP5 MLOAD PUSH1 0x20 DUP7 ADD MLOAD SWAP1 SWAP5 POP PUSH1 0x1 PUSH1 0x1 PUSH1 0x40 SHL SUB DUP1 DUP3 GT ISZERO PUSH3 0x42A JUMPI PUSH0 DUP1 REVERT JUMPDEST PUSH3 0x438 DUP9 DUP4 DUP10 ADD PUSH3 0x34D JUMP JUMPDEST SWAP5 POP PUSH1 0x40 DUP8 ADD MLOAD SWAP2 POP DUP1 DUP3 GT ISZERO PUSH3 0x44E JUMPI PUSH0 DUP1 REVERT JUMPDEST POP PUSH3 0x45D DUP8 DUP3 DUP9 ADD PUSH3 0x34D JUMP JUMPDEST SWAP3 POP POP PUSH3 0x46E PUSH1 0x60 DUP7 ADD PUSH3 0x331 JUMP JUMPDEST SWAP1 POP SWAP3 SWAP6 SWAP2 SWAP5 POP SWAP3 POP JUMP JUMPDEST PUSH4 0x4E487B71 PUSH1 0xE0 SHL PUSH0 MSTORE PUSH1 0x32 PUSH1 0x4 MSTORE PUSH1 0x24 PUSH0 REVERT JUMPDEST PUSH0 PUSH1 0x1 DUP3 ADD PUSH3 0x4AB JUMPI PUSH4 0x4E487B71 PUSH1 0xE0 SHL PUSH0 MSTORE PUSH1 0x11 PUSH1 0x4 MSTORE PUSH1 0x24 PUSH0 REVERT JUMPDEST POP PUSH1 0x1 ADD SWAP1 JUMP JUMPDEST PUSH2 0x1D75 DUP1 PUSH3 0x4C0 PUSH0 CODECOPY PUSH0 RETURN INVALID PUSH1 0x80 PUSH1 0x40 MSTORE PUSH1 0x4 CALLDATASIZE LT PUSH2 0x1B2 JUMPI PUSH0 CALLDATALOAD PUSH1 0xE0 SHR DUP1 PUSH4 0x8065657F GT PUSH2 0xE7 JUMPI DUP1 PUSH4 0xBC197C81 GT PUSH2 0x87 JUMPI DUP1 PUSH4 0xD547741F GT PUSH2 0x62 JUMPI DUP1 PUSH4 0xD547741F EQ PUSH2 0x55D JUMPI DUP1 PUSH4 0xE38335E5 EQ PUSH2 0x57C JUMPI DUP1 PUSH4 0xF23A6E61 EQ PUSH2 0x58F JUMPI DUP1 PUSH4 0xF27A0C92 EQ PUSH2 0x5BA JUMPI PUSH0 DUP1 REVERT JUMPDEST DUP1 PUSH4 0xBC197C81 EQ PUSH2 0x4E8 JUMPI DUP1 PUSH4 0xC4D252F5 EQ PUSH2 0x513 JUMPI DUP1 PUSH4 0xD45C4435 EQ PUSH2 0x532 JUMPI PUSH0 DUP1 REVERT JUMPDEST DUP1 PUSH4 0x91D14854 GT PUSH2 0xC2 JUMPI DUP1 PUSH4 0x91D14854 EQ PUSH2 0x464 JUMPI DUP1 PUSH4 0xA217FDDF EQ PUSH2 0x483 JUMPI DUP1 PUSH4 0xB08E51C0 EQ PUSH2 0x496 JUMPI DUP1 PUSH4 0xB1C5F427 EQ PUSH2 0x4C9 JUMPI PUSH0 DUP1 REVERT JUMPDEST DUP1 PUSH4 0x8065657F EQ PUSH2 0x3F3 JUMPI DUP1 PUSH4 0x8F2A0BB0 EQ PUSH2 0x412 JUMPI DUP1 PUSH4 0x8F61F4F5 EQ PUSH2 0x431 JUMPI PUSH0 DUP1 REVERT JUMPDEST DUP1 PUSH4 0x248A9CA3 GT PUSH2 0x152 JUMPI DUP1 PUSH4 0x31D50750 GT PUSH2 0x12D JUMPI DUP1 PUSH4 0x31D50750 EQ PUSH2 0x377 JUMPI DUP1 PUSH4 0x36568ABE EQ PUSH2 0x396 JUMPI DUP1 PUSH4 0x584B153E EQ PUSH2 0x3B5 JUMPI DUP1 PUSH4 0x64D62353 EQ PUSH2 0x3D4 JUMPI PUSH0 DUP1 REVERT JUMPDEST DUP1 PUSH4 0x248A9CA3 EQ PUSH2 0x2FB JUMPI DUP1 PUSH4 0x2AB0F529 EQ PUSH2 0x329 JUMPI DUP1 PUSH4 0x2F2FF15D EQ PUSH2 0x358 JUMPI PUSH0 DUP1 REVERT JUMPDEST DUP1 PUSH4 0xD3CF6FC GT PUSH2 0x18D JUMPI DUP1 PUSH4 0xD3CF6FC EQ PUSH2 0x253 JUMPI DUP1 PUSH4 0x134008D3 EQ PUSH2 0x286 JUMPI DUP1 PUSH4 0x13BC9F20 EQ PUSH2 0x299 JUMPI DUP1 PUSH4 0x150B7A02 EQ PUSH2 0x2B8 JUMPI PUSH0 DUP1 REVERT JUMPDEST DUP1 PUSH4 0x1D5062A EQ PUSH2 0x1BD JUMPI DUP1 PUSH4 0x1FFC9A7 EQ PUSH2 0x1DE JUMPI DUP1 PUSH4 0x7BD0265 EQ PUSH2 0x212 JUMPI PUSH0 DUP1 REVERT JUMPDEST CALLDATASIZE PUSH2 0x1B9 JUMPI STOP JUMPDEST PUSH0 DUP1 REVERT JUMPDEST CALLVALUE DUP1 ISZERO PUSH2 0x1C8 JUMPI PUSH0 DUP1 REVERT JUMPDEST POP PUSH2 0x1DC PUSH2 0x1D7 CALLDATASIZE PUSH1 0x4 PUSH2 0x13EE JUMP JUMPDEST PUSH2 0x5CE JUMP JUMPDEST STOP JUMPDEST CALLVALUE DUP1 ISZERO PUSH2 0x1E9 JUMPI PUSH0 DUP1 REVERT JUMPDEST POP PUSH2 0x1FD PUSH2 0x1F8 CALLDATASIZE PUSH1 0x4 PUSH2 0x145C JUMP JUMPDEST PUSH2 0x6A2 JUMP JUMPDEST PUSH1 0x40 MLOAD SWAP1 ISZERO ISZERO DUP2 MSTORE PUSH1 0x20 ADD JUMPDEST PUSH1 0x40 MLOAD DUP1 SWAP2 SUB SWAP1 RETURN JUMPDEST CALLVALUE DUP1 ISZERO PUSH2 0x21D JUMPI PUSH0 DUP1 REVERT JUMPDEST POP PUSH2 0x245 PUSH32 0xD8AA0F3194971A2A116679F7C2090F6939C8D4E01A2A8D7E41D55E5351469E63 DUP2 JUMP JUMPDEST PUSH1 0x40 MLOAD SWAP1 DUP2 MSTORE PUSH1 0x20 ADD PUSH2 0x209 JUMP JUMPDEST CALLVALUE DUP1 ISZERO PUSH2 0x25E JUMPI PUSH0 DUP1 REVERT JUMPDEST POP PUSH2 0x245 PUSH32 0x5F58E3A2316349923CE3780F8D587DB2D72378AED66A8261C916544FA6846CA5 DUP2 JUMP JUMPDEST PUSH2 0x1DC PUSH2 0x294 CALLDATASIZE PUSH1 0x4 PUSH2 0x1483 JUMP JUMPDEST PUSH2 0x6CC JUMP JUMPDEST CALLVALUE DUP1 ISZERO PUSH2 0x2A4 JUMPI PUSH0 DUP1 REVERT JUMPDEST POP PUSH2 0x1FD PUSH2 0x2B3 CALLDATASIZE PUSH1 0x4 PUSH2 0x14E9 JUMP JUMPDEST PUSH2 0x77E JUMP JUMPDEST CALLVALUE DUP1 ISZERO PUSH2 0x2C3 JUMPI PUSH0 DUP1 REVERT JUMPDEST POP PUSH2 0x2E2 PUSH2 0x2D2 CALLDATASIZE PUSH1 0x4 PUSH2 0x15AF JUMP JUMPDEST PUSH4 0xA85BD01 PUSH1 0xE1 SHL SWAP5 SWAP4 POP POP POP POP JUMP JUMPDEST PUSH1 0x40 MLOAD PUSH1 0x1 PUSH1 0x1 PUSH1 0xE0 SHL SUB NOT SWAP1 SWAP2 AND DUP2 MSTORE PUSH1 0x20 ADD PUSH2 0x209 JUMP JUMPDEST CALLVALUE DUP1 ISZERO PUSH2 0x306 JUMPI PUSH0 DUP1 REVERT JUMPDEST POP PUSH2 0x245 PUSH2 0x315 CALLDATASIZE PUSH1 0x4 PUSH2 0x14E9 JUMP JUMPDEST PUSH0 SWAP1 DUP2 MSTORE PUSH1 0x20 DUP2 SWAP1 MSTORE PUSH1 0x40 SWAP1 KECCAK256 PUSH1 0x1 ADD SLOAD SWAP1 JUMP JUMPDEST CALLVALUE DUP1 ISZERO PUSH2 0x334 JUMPI PUSH0 DUP1 REVERT JUMPDEST POP PUSH2 0x1FD PUSH2 0x343 CALLDATASIZE PUSH1 0x4 PUSH2 0x14E9 JUMP JUMPDEST PUSH0 SWAP1 DUP2 MSTORE PUSH1 0x1 PUSH1 0x20 DUP2 SWAP1 MSTORE PUSH1 0x40 SWAP1 SWAP2 KECCAK256 SLOAD EQ SWAP1 JUMP JUMPDEST CALLVALUE DUP1 ISZERO PUSH2 0x363 JUMPI PUSH0 DUP1 REVERT JUMPDEST POP PUSH2 0x1DC PUSH2 0x372 CALLDATASIZE PUSH1 0x4 PUSH2 0x1612 JUMP JUMPDEST PUSH2 0x7A3 JUMP JUMPDEST CALLVALUE DUP1 ISZERO PUSH2 0x382 JUMPI PUSH0 DUP1 REVERT JUMPDEST POP PUSH2 0x1FD PUSH2 0x391 CALLDATASIZE PUSH1 0x4 PUSH2 0x14E9 JUMP JUMPDEST PUSH2 0x7CC JUMP JUMPDEST CALLVALUE DUP1 ISZERO PUSH2 0x3A1 JUMPI PUSH0 DUP1 REVERT JUMPDEST POP PUSH2 0x1DC PUSH2 0x3B0 CALLDATASIZE PUSH1 0x4 PUSH2 0x1612 JUMP JUMPDEST PUSH2 0x7E4 JUMP JUMPDEST CALLVALUE DUP1 ISZERO PUSH2 0x3C0 JUMPI PUSH0 DUP1 REVERT JUMPDEST POP PUSH2 0x1FD PUSH2 0x3CF CALLDATASIZE PUSH1 0x4 PUSH2 0x14E9 JUMP JUMPDEST PUSH2 0x867 JUMP JUMPDEST CALLVALUE DUP1 ISZERO PUSH2 0x3DF JUMPI PUSH0 DUP1 REVERT JUMPDEST POP PUSH2 0x1DC PUSH2 0x3EE CALLDATASIZE PUSH1 0x4 PUSH2 0x14E9 JUMP JUMPDEST PUSH2 0x87C JUMP JUMPDEST CALLVALUE DUP1 ISZERO PUSH2 0x3FE JUMPI PUSH0 DUP1 REVERT JUMPDEST POP PUSH2 0x245 PUSH2 0x40D CALLDATASIZE PUSH1 0x4 PUSH2 0x1483 JUMP JUMPDEST PUSH2 0x920 JUMP JUMPDEST CALLVALUE DUP1 ISZERO PUSH2 0x41D JUMPI PUSH0 DUP1 REVERT JUMPDEST POP PUSH2 0x1DC PUSH2 0x42C CALLDATASIZE PUSH1 0x4 PUSH2 0x167C JUMP JUMPDEST PUSH2 0x95E JUMP JUMPDEST CALLVALUE DUP1 ISZERO PUSH2 0x43C JUMPI PUSH0 DUP1 REVERT JUMPDEST POP PUSH2 0x245 PUSH32 0xB09AA5AEB3702CFD50B6B62BC4532604938F21248A27A1D5CA736082B6819CC1 DUP2 JUMP JUMPDEST CALLVALUE DUP1 ISZERO PUSH2 0x46F JUMPI PUSH0 DUP1 REVERT JUMPDEST POP PUSH2 0x1FD PUSH2 0x47E CALLDATASIZE PUSH1 0x4 PUSH2 0x1612 JUMP JUMPDEST PUSH2 0xAEF JUMP JUMPDEST CALLVALUE DUP1 ISZERO PUSH2 0x48E JUMPI PUSH0 DUP1 REVERT JUMPDEST POP PUSH2 0x245 PUSH0 DUP2 JUMP JUMPDEST CALLVALUE DUP1 ISZERO PUSH2 0x4A1 JUMPI PUSH0 DUP1 REVERT JUMPDEST POP PUSH2 0x245 PUSH32 0xFD643C72710C63C0180259ABA6B2D05451E3591A24E58B62239378085726F783 DUP2 JUMP JUMPDEST CALLVALUE DUP1 ISZERO PUSH2 0x4D4 JUMPI PUSH0 DUP1 REVERT JUMPDEST POP PUSH2 0x245 PUSH2 0x4E3 CALLDATASIZE PUSH1 0x4 PUSH2 0x1724 JUMP JUMPDEST PUSH2 0xB17 JUMP JUMPDEST CALLVALUE DUP1 ISZERO PUSH2 0x4F3 JUMPI PUSH0 DUP1 REVERT JUMPDEST POP PUSH2 0x2E2 PUSH2 0x502 CALLDATASIZE PUSH1 0x4 PUSH2 0x1840 JUMP JUMPDEST PUSH4 0xBC197C81 PUSH1 0xE0 SHL SWAP6 SWAP5 POP POP POP POP POP JUMP JUMPDEST CALLVALUE DUP1 ISZERO PUSH2 0x51E JUMPI PUSH0 DUP1 REVERT JUMPDEST POP PUSH2 0x1DC PUSH2 0x52D CALLDATASIZE PUSH1 0x4 PUSH2 0x14E9 JUMP JUMPDEST PUSH2 0xB5B JUMP JUMPDEST CALLVALUE DUP1 ISZERO PUSH2 0x53D JUMPI PUSH0 DUP1 REVERT JUMPDEST POP PUSH2 0x245 PUSH2 0x54C CALLDATASIZE PUSH1 0x4 PUSH2 0x14E9 JUMP JUMPDEST PUSH0 SWAP1 DUP2 MSTORE PUSH1 0x1 PUSH1 0x20 MSTORE PUSH1 0x40 SWAP1 KECCAK256 SLOAD SWAP1 JUMP JUMPDEST CALLVALUE DUP1 ISZERO PUSH2 0x568 JUMPI PUSH0 DUP1 REVERT JUMPDEST POP PUSH2 0x1DC PUSH2 0x577 CALLDATASIZE PUSH1 0x4 PUSH2 0x1612 JUMP JUMPDEST PUSH2 0xC2F JUMP JUMPDEST PUSH2 0x1DC PUSH2 0x58A CALLDATASIZE PUSH1 0x4 PUSH2 0x1724 JUMP JUMPDEST PUSH2 0xC53 JUMP JUMPDEST CALLVALUE DUP1 ISZERO PUSH2 0x59A JUMPI PUSH0 DUP1 REVERT JUMPDEST POP PUSH2 0x2E2 PUSH2 0x5A9 CALLDATASIZE PUSH1 0x4 PUSH2 0x18E2 JUMP JUMPDEST PUSH4 0xF23A6E61 PUSH1 0xE0 SHL SWAP6 SWAP5 POP POP POP POP POP JUMP JUMPDEST CALLVALUE DUP1 ISZERO PUSH2 0x5C5 JUMPI PUSH0 DUP1 REVERT JUMPDEST POP PUSH1 0x2 SLOAD PUSH2 0x245 JUMP JUMPDEST PUSH32 0xB09AA5AEB3702CFD50B6B62BC4532604938F21248A27A1D5CA736082B6819CC1 PUSH2 0x5F8 DUP2 PUSH2 0xDD7 JUMP JUMPDEST PUSH0 PUSH2 0x607 DUP10 DUP10 DUP10 DUP10 DUP10 DUP10 PUSH2 0x920 JUMP JUMPDEST SWAP1 POP PUSH2 0x613 DUP2 DUP5 PUSH2 0xDE4 JUMP JUMPDEST PUSH0 DUP2 PUSH32 0x4CF4410CC57040E44862EF0F45F3DD5A5E02DB8EB8ADD648D4B0E236F1D07DCA DUP12 DUP12 DUP12 DUP12 DUP12 DUP11 PUSH1 0x40 MLOAD PUSH2 0x64E SWAP7 SWAP6 SWAP5 SWAP4 SWAP3 SWAP2 SWAP1 PUSH2 0x1969 JUMP JUMPDEST PUSH1 0x40 MLOAD DUP1 SWAP2 SUB SWAP1 LOG3 DUP4 ISZERO PUSH2 0x697 JUMPI DUP1 PUSH32 0x20FDA5FD27A1EA7BF5B9567F143AC5470BB059374A27E8F67CB44F946F6D0387 DUP6 PUSH1 0x40 MLOAD PUSH2 0x68E SWAP2 DUP2 MSTORE PUSH1 0x20 ADD SWAP1 JUMP JUMPDEST PUSH1 0x40 MLOAD DUP1 SWAP2 SUB SWAP1 LOG2 JUMPDEST POP POP POP POP POP POP POP POP POP JUMP JUMPDEST PUSH0 PUSH1 0x1 PUSH1 0x1 PUSH1 0xE0 SHL SUB NOT DUP3 AND PUSH4 0x2711897 PUSH1 0xE5 SHL EQ DUP1 PUSH2 0x6C6 JUMPI POP PUSH2 0x6C6 DUP3 PUSH2 0xED2 JUMP JUMPDEST SWAP3 SWAP2 POP POP JUMP JUMPDEST PUSH32 0xD8AA0F3194971A2A116679F7C2090F6939C8D4E01A2A8D7E41D55E5351469E63 PUSH2 0x6F7 DUP2 PUSH0 PUSH2 0xAEF JUMP JUMPDEST PUSH2 0x705 JUMPI PUSH2 0x705 DUP2 CALLER PUSH2 0xF06 JUMP JUMPDEST PUSH0 PUSH2 0x714 DUP9 DUP9 DUP9 DUP9 DUP9 DUP9 PUSH2 0x920 JUMP JUMPDEST SWAP1 POP PUSH2 0x720 DUP2 DUP6 PUSH2 0xF5F JUMP JUMPDEST PUSH2 0x72C DUP9 DUP9 DUP9 DUP9 PUSH2 0xFFA JUMP JUMPDEST PUSH0 DUP2 PUSH32 0xC2617EFA69BAB66782FA219543714338489C4E9E178271560A91B82C3F612B58 DUP11 DUP11 DUP11 DUP11 PUSH1 0x40 MLOAD PUSH2 0x763 SWAP5 SWAP4 SWAP3 SWAP2 SWAP1 PUSH2 0x19A5 JUMP JUMPDEST PUSH1 0x40 MLOAD DUP1 SWAP2 SUB SWAP1 LOG3 PUSH2 0x774 DUP2 PUSH2 0x10C9 JUMP JUMPDEST POP POP POP POP POP POP POP POP JUMP JUMPDEST PUSH0 DUP2 DUP2 MSTORE PUSH1 0x1 PUSH1 0x20 MSTORE PUSH1 0x40 DUP2 KECCAK256 SLOAD PUSH1 0x1 DUP2 GT DUP1 ISZERO PUSH2 0x79C JUMPI POP TIMESTAMP DUP2 GT ISZERO JUMPDEST SWAP4 SWAP3 POP POP POP JUMP JUMPDEST PUSH0 DUP3 DUP2 MSTORE PUSH1 0x20 DUP2 SWAP1 MSTORE PUSH1 0x40 SWAP1 KECCAK256 PUSH1 0x1 ADD SLOAD PUSH2 0x7BD DUP2 PUSH2 0xDD7 JUMP JUMPDEST PUSH2 0x7C7 DUP4 DUP4 PUSH2 0x1101 JUMP JUMPDEST POP POP POP JUMP JUMPDEST PUSH0 DUP2 DUP2 MSTORE PUSH1 0x1 PUSH1 0x20 MSTORE PUSH1 0x40 DUP2 KECCAK256 SLOAD DUP2 SWAP1 JUMPDEST GT SWAP3 SWAP2 POP POP JUMP JUMPDEST PUSH1 0x1 PUSH1 0x1 PUSH1 0xA0 SHL SUB DUP2 AND CALLER EQ PUSH2 0x859 JUMPI PUSH1 0x40 MLOAD PUSH3 0x461BCD PUSH1 0xE5 SHL DUP2 MSTORE PUSH1 0x20 PUSH1 0x4 DUP3 ADD MSTORE PUSH1 0x2F PUSH1 0x24 DUP3 ADD MSTORE PUSH32 0x416363657373436F6E74726F6C3A2063616E206F6E6C792072656E6F756E6365 PUSH1 0x44 DUP3 ADD MSTORE PUSH15 0x103937B632B9903337B91039B2B633 PUSH1 0x89 SHL PUSH1 0x64 DUP3 ADD MSTORE PUSH1 0x84 ADD JUMPDEST PUSH1 0x40 MLOAD DUP1 SWAP2 SUB SWAP1 REVERT JUMPDEST PUSH2 0x863 DUP3 DUP3 PUSH2 0x1184 JUMP JUMPDEST POP POP JUMP JUMPDEST PUSH0 DUP2 DUP2 MSTORE PUSH1 0x1 PUSH1 0x20 DUP2 SWAP1 MSTORE PUSH1 0x40 DUP3 KECCAK256 SLOAD PUSH2 0x7DD JUMP JUMPDEST CALLER ADDRESS EQ PUSH2 0x8DF JUMPI PUSH1 0x40 MLOAD PUSH3 0x461BCD PUSH1 0xE5 SHL DUP2 MSTORE PUSH1 0x20 PUSH1 0x4 DUP3 ADD MSTORE PUSH1 0x2B PUSH1 0x24 DUP3 ADD MSTORE PUSH32 0x54696D656C6F636B436F6E74726F6C6C65723A2063616C6C6572206D75737420 PUSH1 0x44 DUP3 ADD MSTORE PUSH11 0x62652074696D656C6F636B PUSH1 0xA8 SHL PUSH1 0x64 DUP3 ADD MSTORE PUSH1 0x84 ADD PUSH2 0x850 JUMP JUMPDEST PUSH1 0x2 SLOAD PUSH1 0x40 DUP1 MLOAD SWAP2 DUP3 MSTORE PUSH1 0x20 DUP3 ADD DUP4 SWAP1 MSTORE PUSH32 0x11C24F4EAD16507C69AC467FBD5E4EED5FB5C699626D2CC6D66421DF253886D5 SWAP2 ADD PUSH1 0x40 MLOAD DUP1 SWAP2 SUB SWAP1 LOG1 PUSH1 0x2 SSTORE JUMP JUMPDEST PUSH0 DUP7 DUP7 DUP7 DUP7 DUP7 DUP7 PUSH1 0x40 MLOAD PUSH1 0x20 ADD PUSH2 0x93C SWAP7 SWAP6 SWAP5 SWAP4 SWAP3 SWAP2 SWAP1 PUSH2 0x1969 JUMP JUMPDEST PUSH1 0x40 MLOAD PUSH1 0x20 DUP2 DUP4 SUB SUB DUP2 MSTORE SWAP1 PUSH1 0x40 MSTORE DUP1 MLOAD SWAP1 PUSH1 0x20 ADD KECCAK256 SWAP1 POP SWAP7 SWAP6 POP POP POP POP POP POP JUMP JUMPDEST PUSH32 0xB09AA5AEB3702CFD50B6B62BC4532604938F21248A27A1D5CA736082B6819CC1 PUSH2 0x988 DUP2 PUSH2 0xDD7 JUMP JUMPDEST DUP9 DUP8 EQ PUSH2 0x9A7 JUMPI PUSH1 0x40 MLOAD PUSH3 0x461BCD PUSH1 0xE5 SHL DUP2 MSTORE PUSH1 0x4 ADD PUSH2 0x850 SWAP1 PUSH2 0x19D6 JUMP JUMPDEST DUP9 DUP6 EQ PUSH2 0x9C6 JUMPI PUSH1 0x40 MLOAD PUSH3 0x461BCD PUSH1 0xE5 SHL DUP2 MSTORE PUSH1 0x4 ADD PUSH2 0x850 SWAP1 PUSH2 0x19D6 JUMP JUMPDEST PUSH0 PUSH2 0x9D7 DUP12 DUP12 DUP12 DUP12 DUP12 DUP12 DUP12 DUP12 PUSH2 0xB17 JUMP JUMPDEST SWAP1 POP PUSH2 0x9E3 DUP2 DUP5 PUSH2 0xDE4 JUMP JUMPDEST PUSH0 JUMPDEST DUP11 DUP2 LT ISZERO PUSH2 0xAA0 JUMPI DUP1 DUP3 PUSH32 0x4CF4410CC57040E44862EF0F45F3DD5A5E02DB8EB8ADD648D4B0E236F1D07DCA DUP15 DUP15 DUP6 DUP2 DUP2 LT PUSH2 0xA22 JUMPI PUSH2 0xA22 PUSH2 0x1A19 JUMP JUMPDEST SWAP1 POP PUSH1 0x20 MUL ADD PUSH1 0x20 DUP2 ADD SWAP1 PUSH2 0xA37 SWAP2 SWAP1 PUSH2 0x1A2D JUMP JUMPDEST DUP14 DUP14 DUP7 DUP2 DUP2 LT PUSH2 0xA49 JUMPI PUSH2 0xA49 PUSH2 0x1A19 JUMP JUMPDEST SWAP1 POP PUSH1 0x20 MUL ADD CALLDATALOAD DUP13 DUP13 DUP8 DUP2 DUP2 LT PUSH2 0xA62 JUMPI PUSH2 0xA62 PUSH2 0x1A19 JUMP JUMPDEST SWAP1 POP PUSH1 0x20 MUL DUP2 ADD SWAP1 PUSH2 0xA74 SWAP2 SWAP1 PUSH2 0x1A46 JUMP JUMPDEST DUP13 DUP12 PUSH1 0x40 MLOAD PUSH2 0xA88 SWAP7 SWAP6 SWAP5 SWAP4 SWAP3 SWAP2 SWAP1 PUSH2 0x1969 JUMP JUMPDEST PUSH1 0x40 MLOAD DUP1 SWAP2 SUB SWAP1 LOG3 PUSH2 0xA99 DUP2 PUSH2 0x1A9C JUMP JUMPDEST SWAP1 POP PUSH2 0x9E5 JUMP JUMPDEST POP DUP4 ISZERO PUSH2 0xAE2 JUMPI DUP1 PUSH32 0x20FDA5FD27A1EA7BF5B9567F143AC5470BB059374A27E8F67CB44F946F6D0387 DUP6 PUSH1 0x40 MLOAD PUSH2 0xAD9 SWAP2 DUP2 MSTORE PUSH1 0x20 ADD SWAP1 JUMP JUMPDEST PUSH1 0x40 MLOAD DUP1 SWAP2 SUB SWAP1 LOG2 JUMPDEST POP POP POP POP POP POP POP POP POP POP POP JUMP JUMPDEST PUSH0 SWAP2 DUP3 MSTORE PUSH1 0x20 DUP3 DUP2 MSTORE PUSH1 0x40 DUP1 DUP5 KECCAK256 PUSH1 0x1 PUSH1 0x1 PUSH1 0xA0 SHL SUB SWAP4 SWAP1 SWAP4 AND DUP5 MSTORE SWAP2 SWAP1 MSTORE SWAP1 KECCAK256 SLOAD PUSH1 0xFF AND SWAP1 JUMP JUMPDEST PUSH0 DUP9 DUP9 DUP9 DUP9 DUP9 DUP9 DUP9 DUP9 PUSH1 0x40 MLOAD PUSH1 0x20 ADD PUSH2 0xB37 SWAP9 SWAP8 SWAP7 SWAP6 SWAP5 SWAP4 SWAP3 SWAP2 SWAP1 PUSH2 0x1B40 JUMP JUMPDEST PUSH1 0x40 MLOAD PUSH1 0x20 DUP2 DUP4 SUB SUB DUP2 MSTORE SWAP1 PUSH1 0x40 MSTORE DUP1 MLOAD SWAP1 PUSH1 0x20 ADD KECCAK256 SWAP1 POP SWAP9 SWAP8 POP POP POP POP POP POP POP POP JUMP JUMPDEST PUSH32 0xFD643C72710C63C0180259ABA6B2D05451E3591A24E58B62239378085726F783 PUSH2 0xB85 DUP2 PUSH2 0xDD7 JUMP JUMPDEST PUSH2 0xB8E DUP3 PUSH2 0x867 JUMP JUMPDEST PUSH2 0xBF4 JUMPI PUSH1 0x40 MLOAD PUSH3 0x461BCD PUSH1 0xE5 SHL DUP2 MSTORE PUSH1 0x20 PUSH1 0x4 DUP3 ADD MSTORE PUSH1 0x31 PUSH1 0x24 DUP3 ADD MSTORE PUSH32 0x54696D656C6F636B436F6E74726F6C6C65723A206F7065726174696F6E206361 PUSH1 0x44 DUP3 ADD MSTORE PUSH17 0x1B9B9BDD0818994818D85B98D95B1B1959 PUSH1 0x7A SHL PUSH1 0x64 DUP3 ADD MSTORE PUSH1 0x84 ADD PUSH2 0x850 JUMP JUMPDEST PUSH0 DUP3 DUP2 MSTORE PUSH1 0x1 PUSH1 0x20 MSTORE PUSH1 0x40 DUP1 DUP3 KECCAK256 DUP3 SWAP1 SSTORE MLOAD DUP4 SWAP2 PUSH32 0xBAA1EB22F2A492BA1A5FEA61B8DF4D27C6C8B5F3971E63BB58FA14FF72EEDB70 SWAP2 LOG2 POP POP JUMP JUMPDEST PUSH0 DUP3 DUP2 MSTORE PUSH1 0x20 DUP2 SWAP1 MSTORE PUSH1 0x40 SWAP1 KECCAK256 PUSH1 0x1 ADD SLOAD PUSH2 0xC49 DUP2 PUSH2 0xDD7 JUMP JUMPDEST PUSH2 0x7C7 DUP4 DUP4 PUSH2 0x1184 JUMP JUMPDEST PUSH32 0xD8AA0F3194971A2A116679F7C2090F6939C8D4E01A2A8D7E41D55E5351469E63 PUSH2 0xC7E DUP2 PUSH0 PUSH2 0xAEF JUMP JUMPDEST PUSH2 0xC8C JUMPI PUSH2 0xC8C DUP2 CALLER PUSH2 0xF06 JUMP JUMPDEST DUP8 DUP7 EQ PUSH2 0xCAB JUMPI PUSH1 0x40 MLOAD PUSH3 0x461BCD PUSH1 0xE5 SHL DUP2 MSTORE PUSH1 0x4 ADD PUSH2 0x850 SWAP1 PUSH2 0x19D6 JUMP JUMPDEST DUP8 DUP5 EQ PUSH2 0xCCA JUMPI PUSH1 0x40 MLOAD PUSH3 0x461BCD PUSH1 0xE5 SHL DUP2 MSTORE PUSH1 0x4 ADD PUSH2 0x850 SWAP1 PUSH2 0x19D6 JUMP JUMPDEST PUSH0 PUSH2 0xCDB DUP11 DUP11 DUP11 DUP11 DUP11 DUP11 DUP11 DUP11 PUSH2 0xB17 JUMP JUMPDEST SWAP1 POP PUSH2 0xCE7 DUP2 DUP6 PUSH2 0xF5F JUMP JUMPDEST PUSH0 JUMPDEST DUP10 DUP2 LT ISZERO PUSH2 0xDC1 JUMPI PUSH0 DUP12 DUP12 DUP4 DUP2 DUP2 LT PUSH2 0xD04 JUMPI PUSH2 0xD04 PUSH2 0x1A19 JUMP JUMPDEST SWAP1 POP PUSH1 0x20 MUL ADD PUSH1 0x20 DUP2 ADD SWAP1 PUSH2 0xD19 SWAP2 SWAP1 PUSH2 0x1A2D JUMP JUMPDEST SWAP1 POP PUSH0 DUP11 DUP11 DUP5 DUP2 DUP2 LT PUSH2 0xD2E JUMPI PUSH2 0xD2E PUSH2 0x1A19 JUMP JUMPDEST SWAP1 POP PUSH1 0x20 MUL ADD CALLDATALOAD SWAP1 POP CALLDATASIZE PUSH0 DUP11 DUP11 DUP7 DUP2 DUP2 LT PUSH2 0xD4B JUMPI PUSH2 0xD4B PUSH2 0x1A19 JUMP JUMPDEST SWAP1 POP PUSH1 0x20 MUL DUP2 ADD SWAP1 PUSH2 0xD5D SWAP2 SWAP1 PUSH2 0x1A46 JUMP JUMPDEST SWAP2 POP SWAP2 POP PUSH2 0xD6D DUP5 DUP5 DUP5 DUP5 PUSH2 0xFFA JUMP JUMPDEST DUP5 DUP7 PUSH32 0xC2617EFA69BAB66782FA219543714338489C4E9E178271560A91B82C3F612B58 DUP7 DUP7 DUP7 DUP7 PUSH1 0x40 MLOAD PUSH2 0xDA4 SWAP5 SWAP4 SWAP3 SWAP2 SWAP1 PUSH2 0x19A5 JUMP JUMPDEST PUSH1 0x40 MLOAD DUP1 SWAP2 SUB SWAP1 LOG3 POP POP POP POP DUP1 PUSH2 0xDBA SWAP1 PUSH2 0x1A9C JUMP JUMPDEST SWAP1 POP PUSH2 0xCE9 JUMP JUMPDEST POP PUSH2 0xDCB DUP2 PUSH2 0x10C9 JUMP JUMPDEST POP POP POP POP POP POP POP POP POP POP JUMP JUMPDEST PUSH2 0xDE1 DUP2 CALLER PUSH2 0xF06 JUMP JUMPDEST POP JUMP JUMPDEST PUSH2 0xDED DUP3 PUSH2 0x7CC JUMP JUMPDEST ISZERO PUSH2 0xE52 JUMPI PUSH1 0x40 MLOAD PUSH3 0x461BCD PUSH1 0xE5 SHL DUP2 MSTORE PUSH1 0x20 PUSH1 0x4 DUP3 ADD MSTORE PUSH1 0x2F PUSH1 0x24 DUP3 ADD MSTORE PUSH32 0x54696D656C6F636B436F6E74726F6C6C65723A206F7065726174696F6E20616C PUSH1 0x44 DUP3 ADD MSTORE PUSH15 0x1C9958591E481CD8DA19591D5B1959 PUSH1 0x8A SHL PUSH1 0x64 DUP3 ADD MSTORE PUSH1 0x84 ADD PUSH2 0x850 JUMP JUMPDEST PUSH1 0x2 SLOAD DUP2 LT ISZERO PUSH2 0xEB3 JUMPI PUSH1 0x40 MLOAD PUSH3 0x461BCD PUSH1 0xE5 SHL DUP2 MSTORE PUSH1 0x20 PUSH1 0x4 DUP3 ADD MSTORE PUSH1 0x26 PUSH1 0x24 DUP3 ADD MSTORE PUSH32 0x54696D656C6F636B436F6E74726F6C6C65723A20696E73756666696369656E74 PUSH1 0x44 DUP3 ADD MSTORE PUSH6 0x2064656C6179 PUSH1 0xD0 SHL PUSH1 0x64 DUP3 ADD MSTORE PUSH1 0x84 ADD PUSH2 0x850 JUMP JUMPDEST PUSH2 0xEBD DUP2 TIMESTAMP PUSH2 0x1BDF JUMP JUMPDEST PUSH0 SWAP3 DUP4 MSTORE PUSH1 0x1 PUSH1 0x20 MSTORE PUSH1 0x40 SWAP1 SWAP3 KECCAK256 SWAP2 SWAP1 SWAP2 SSTORE POP JUMP JUMPDEST PUSH0 PUSH1 0x1 PUSH1 0x1 PUSH1 0xE0 SHL SUB NOT DUP3 AND PUSH4 0x7965DB0B PUSH1 0xE0 SHL EQ DUP1 PUSH2 0x6C6 JUMPI POP PUSH4 0x1FFC9A7 PUSH1 0xE0 SHL PUSH1 0x1 PUSH1 0x1 PUSH1 0xE0 SHL SUB NOT DUP4 AND EQ PUSH2 0x6C6 JUMP JUMPDEST PUSH2 0xF10 DUP3 DUP3 PUSH2 0xAEF JUMP JUMPDEST PUSH2 0x863 JUMPI PUSH2 0xF1D DUP2 PUSH2 0x11E8 JUMP JUMPDEST PUSH2 0xF28 DUP4 PUSH1 0x20 PUSH2 0x11FA JUMP JUMPDEST PUSH1 0x40 MLOAD PUSH1 0x20 ADD PUSH2 0xF39 SWAP3 SWAP2 SWAP1 PUSH2 0x1C14 JUMP JUMPDEST PUSH1 0x40 DUP1 MLOAD PUSH1 0x1F NOT DUP2 DUP5 SUB ADD DUP2 MSTORE SWAP1 DUP3 SWAP1 MSTORE PUSH3 0x461BCD PUSH1 0xE5 SHL DUP3 MSTORE PUSH2 0x850 SWAP2 PUSH1 0x4 ADD PUSH2 0x1C88 JUMP JUMPDEST PUSH2 0xF68 DUP3 PUSH2 0x77E JUMP JUMPDEST PUSH2 0xF84 JUMPI PUSH1 0x40 MLOAD PUSH3 0x461BCD PUSH1 0xE5 SHL DUP2 MSTORE PUSH1 0x4 ADD PUSH2 0x850 SWAP1 PUSH2 0x1CBA JUMP JUMPDEST DUP1 ISZERO DUP1 PUSH2 0xF9F JUMPI POP PUSH0 DUP2 DUP2 MSTORE PUSH1 0x1 PUSH1 0x20 DUP2 SWAP1 MSTORE PUSH1 0x40 SWAP1 SWAP2 KECCAK256 SLOAD EQ JUMPDEST PUSH2 0x863 JUMPI PUSH1 0x40 MLOAD PUSH3 0x461BCD PUSH1 0xE5 SHL DUP2 MSTORE PUSH1 0x20 PUSH1 0x4 DUP3 ADD MSTORE PUSH1 0x26 PUSH1 0x24 DUP3 ADD MSTORE PUSH32 0x54696D656C6F636B436F6E74726F6C6C65723A206D697373696E672064657065 PUSH1 0x44 DUP3 ADD MSTORE PUSH6 0x6E64656E6379 PUSH1 0xD0 SHL PUSH1 0x64 DUP3 ADD MSTORE PUSH1 0x84 ADD PUSH2 0x850 JUMP JUMPDEST PUSH0 DUP5 PUSH1 0x1 PUSH1 0x1 PUSH1 0xA0 SHL SUB AND DUP5 DUP5 DUP5 PUSH1 0x40 MLOAD PUSH2 0x1016 SWAP3 SWAP2 SWAP1 PUSH2 0x1D04 JUMP JUMPDEST PUSH0 PUSH1 0x40 MLOAD DUP1 DUP4 SUB DUP2 DUP6 DUP8 GAS CALL SWAP3 POP POP POP RETURNDATASIZE DUP1 PUSH0 DUP2 EQ PUSH2 0x1050 JUMPI PUSH1 0x40 MLOAD SWAP2 POP PUSH1 0x1F NOT PUSH1 0x3F RETURNDATASIZE ADD AND DUP3 ADD PUSH1 0x40 MSTORE RETURNDATASIZE DUP3 MSTORE RETURNDATASIZE PUSH0 PUSH1 0x20 DUP5 ADD RETURNDATACOPY PUSH2 0x1055 JUMP JUMPDEST PUSH1 0x60 SWAP2 POP JUMPDEST POP POP SWAP1 POP DUP1 PUSH2 0x10C2 JUMPI PUSH1 0x40 MLOAD PUSH3 0x461BCD PUSH1 0xE5 SHL DUP2 MSTORE PUSH1 0x20 PUSH1 0x4 DUP3 ADD MSTORE PUSH1 0x33 PUSH1 0x24 DUP3 ADD MSTORE PUSH32 0x54696D656C6F636B436F6E74726F6C6C65723A20756E6465726C79696E672074 PUSH1 0x44 DUP3 ADD MSTORE PUSH19 0x1C985B9CD858DD1A5BDB881C995D995C9D1959 PUSH1 0x6A SHL PUSH1 0x64 DUP3 ADD MSTORE PUSH1 0x84 ADD PUSH2 0x850 JUMP JUMPDEST POP POP POP POP POP JUMP JUMPDEST PUSH2 0x10D2 DUP2 PUSH2 0x77E JUMP JUMPDEST PUSH2 0x10EE JUMPI PUSH1 0x40 MLOAD PUSH3 0x461BCD PUSH1 0xE5 SHL DUP2 MSTORE PUSH1 0x4 ADD PUSH2 0x850 SWAP1 PUSH2 0x1CBA JUMP JUMPDEST PUSH0 SWAP1 DUP2 MSTORE PUSH1 0x1 PUSH1 0x20 DUP2 SWAP1 MSTORE PUSH1 0x40 SWAP1 SWAP2 KECCAK256 SSTORE JUMP JUMPDEST PUSH2 0x110B DUP3 DUP3 PUSH2 0xAEF JUMP JUMPDEST PUSH2 0x863 JUMPI PUSH0 DUP3 DUP2 MSTORE PUSH1 0x20 DUP2 DUP2 MSTORE PUSH1 0x40 DUP1 DUP4 KECCAK256 PUSH1 0x1 PUSH1 0x1 PUSH1 0xA0 SHL SUB DUP6 AND DUP5 MSTORE SWAP1 SWAP2 MSTORE SWAP1 KECCAK256 DUP1 SLOAD PUSH1 0xFF NOT AND PUSH1 0x1 OR SWAP1 SSTORE PUSH2 0x1140 CALLER SWAP1 JUMP JUMPDEST PUSH1 0x1 PUSH1 0x1 PUSH1 0xA0 SHL SUB AND DUP2 PUSH1 0x1 PUSH1 0x1 PUSH1 0xA0 SHL SUB AND DUP4 PUSH32 0x2F8788117E7EFF1D82E926EC794901D17C78024A50270940304540A733656F0D PUSH1 0x40 MLOAD PUSH1 0x40 MLOAD DUP1 SWAP2 SUB SWAP1 LOG4 POP POP JUMP JUMPDEST PUSH2 0x118E DUP3 DUP3 PUSH2 0xAEF JUMP JUMPDEST ISZERO PUSH2 0x863 JUMPI PUSH0 DUP3 DUP2 MSTORE PUSH1 0x20 DUP2 DUP2 MSTORE PUSH1 0x40 DUP1 DUP4 KECCAK256 PUSH1 0x1 PUSH1 0x1 PUSH1 0xA0 SHL SUB DUP6 AND DUP1 DUP6 MSTORE SWAP3 MSTORE DUP1 DUP4 KECCAK256 DUP1 SLOAD PUSH1 0xFF NOT AND SWAP1 SSTORE MLOAD CALLER SWAP3 DUP6 SWAP2 PUSH32 0xF6391F5C32D9C69D2A47EA670B442974B53935D1EDC7FD64EB21E047A839171B SWAP2 SWAP1 LOG4 POP POP JUMP JUMPDEST PUSH1 0x60 PUSH2 0x6C6 PUSH1 0x1 PUSH1 0x1 PUSH1 0xA0 SHL SUB DUP4 AND PUSH1 0x14 JUMPDEST PUSH1 0x60 PUSH0 PUSH2 0x1208 DUP4 PUSH1 0x2 PUSH2 0x1D13 JUMP JUMPDEST PUSH2 0x1213 SWAP1 PUSH1 0x2 PUSH2 0x1BDF JUMP JUMPDEST PUSH1 0x1 PUSH1 0x1 PUSH1 0x40 SHL SUB DUP2 GT ISZERO PUSH2 0x122A JUMPI PUSH2 0x122A PUSH2 0x1500 JUMP JUMPDEST PUSH1 0x40 MLOAD SWAP1 DUP1 DUP3 MSTORE DUP1 PUSH1 0x1F ADD PUSH1 0x1F NOT AND PUSH1 0x20 ADD DUP3 ADD PUSH1 0x40 MSTORE DUP1 ISZERO PUSH2 0x1254 JUMPI PUSH1 0x20 DUP3 ADD DUP2 DUP1 CALLDATASIZE DUP4 CALLDATACOPY ADD SWAP1 POP JUMPDEST POP SWAP1 POP PUSH1 0x3 PUSH1 0xFC SHL DUP2 PUSH0 DUP2 MLOAD DUP2 LT PUSH2 0x126E JUMPI PUSH2 0x126E PUSH2 0x1A19 JUMP JUMPDEST PUSH1 0x20 ADD ADD SWAP1 PUSH1 0x1 PUSH1 0x1 PUSH1 0xF8 SHL SUB NOT AND SWAP1 DUP2 PUSH0 BYTE SWAP1 MSTORE8 POP PUSH1 0xF PUSH1 0xFB SHL DUP2 PUSH1 0x1 DUP2 MLOAD DUP2 LT PUSH2 0x129C JUMPI PUSH2 0x129C PUSH2 0x1A19 JUMP JUMPDEST PUSH1 0x20 ADD ADD SWAP1 PUSH1 0x1 PUSH1 0x1 PUSH1 0xF8 SHL SUB NOT AND SWAP1 DUP2 PUSH0 BYTE SWAP1 MSTORE8 POP PUSH0 PUSH2 0x12BE DUP5 PUSH1 0x2 PUSH2 0x1D13 JUMP JUMPDEST PUSH2 0x12C9 SWAP1 PUSH1 0x1 PUSH2 0x1BDF JUMP JUMPDEST SWAP1 POP JUMPDEST PUSH1 0x1 DUP2 GT ISZERO PUSH2 0x1340 JUMPI PUSH16 0x181899199A1A9B1B9C1CB0B131B232B3 PUSH1 0x81 SHL DUP6 PUSH1 0xF AND PUSH1 0x10 DUP2 LT PUSH2 0x12FD JUMPI PUSH2 0x12FD PUSH2 0x1A19 JUMP JUMPDEST BYTE PUSH1 0xF8 SHL DUP3 DUP3 DUP2 MLOAD DUP2 LT PUSH2 0x1313 JUMPI PUSH2 0x1313 PUSH2 0x1A19 JUMP JUMPDEST PUSH1 0x20 ADD ADD SWAP1 PUSH1 0x1 PUSH1 0x1 PUSH1 0xF8 SHL SUB NOT AND SWAP1 DUP2 PUSH0 BYTE SWAP1 MSTORE8 POP PUSH1 0x4 SWAP5 SWAP1 SWAP5 SHR SWAP4 PUSH2 0x1339 DUP2 PUSH2 0x1D2A JUMP JUMPDEST SWAP1 POP PUSH2 0x12CC JUMP JUMPDEST POP DUP4 ISZERO PUSH2 0x79C JUMPI PUSH1 0x40 MLOAD PUSH3 0x461BCD PUSH1 0xE5 SHL DUP2 MSTORE PUSH1 0x20 PUSH1 0x4 DUP3 ADD DUP2 SWAP1 MSTORE PUSH1 0x24 DUP3 ADD MSTORE PUSH32 0x537472696E67733A20686578206C656E67746820696E73756666696369656E74 PUSH1 0x44 DUP3 ADD MSTORE PUSH1 0x64 ADD PUSH2 0x850 JUMP JUMPDEST DUP1 CALLDATALOAD PUSH1 0x1 PUSH1 0x1 PUSH1 0xA0 SHL SUB DUP2 AND DUP2 EQ PUSH2 0x13A5 JUMPI PUSH0 DUP1 REVERT JUMPDEST SWAP2 SWAP1 POP JUMP JUMPDEST PUSH0 DUP1 DUP4 PUSH1 0x1F DUP5 ADD SLT PUSH2 0x13BA JUMPI PUSH0 DUP1 REVERT JUMPDEST POP DUP2 CALLDATALOAD PUSH1 0x1 PUSH1 0x1 PUSH1 0x40 SHL SUB DUP2 GT ISZERO PUSH2 0x13D0 JUMPI PUSH0 DUP1 REVERT JUMPDEST PUSH1 0x20 DUP4 ADD SWAP2 POP DUP4 PUSH1 0x20 DUP3 DUP6 ADD ADD GT ISZERO PUSH2 0x13E7 JUMPI PUSH0 DUP1 REVERT JUMPDEST SWAP3 POP SWAP3 SWAP1 POP JUMP JUMPDEST PUSH0 DUP1 PUSH0 DUP1 PUSH0 DUP1 PUSH0 PUSH1 0xC0 DUP9 DUP11 SUB SLT ISZERO PUSH2 0x1404 JUMPI PUSH0 DUP1 REVERT JUMPDEST PUSH2 0x140D DUP9 PUSH2 0x138F JUMP JUMPDEST SWAP7 POP PUSH1 0x20 DUP9 ADD CALLDATALOAD SWAP6 POP PUSH1 0x40 DUP9 ADD CALLDATALOAD PUSH1 0x1 PUSH1 0x1 PUSH1 0x40 SHL SUB DUP2 GT ISZERO PUSH2 0x142E JUMPI PUSH0 DUP1 REVERT JUMPDEST PUSH2 0x143A DUP11 DUP3 DUP12 ADD PUSH2 0x13AA JUMP JUMPDEST SWAP9 SWAP12 SWAP8 SWAP11 POP SWAP9 PUSH1 0x60 DUP2 ADD CALLDATALOAD SWAP8 PUSH1 0x80 DUP3 ADD CALLDATALOAD SWAP8 POP PUSH1 0xA0 SWAP1 SWAP2 ADD CALLDATALOAD SWAP6 POP SWAP4 POP POP POP POP JUMP JUMPDEST PUSH0 PUSH1 0x20 DUP3 DUP5 SUB SLT ISZERO PUSH2 0x146C JUMPI PUSH0 DUP1 REVERT JUMPDEST DUP2 CALLDATALOAD PUSH1 0x1 PUSH1 0x1 PUSH1 0xE0 SHL SUB NOT DUP2 AND DUP2 EQ PUSH2 0x79C JUMPI PUSH0 DUP1 REVERT JUMPDEST PUSH0 DUP1 PUSH0 DUP1 PUSH0 DUP1 PUSH1 0xA0 DUP8 DUP10 SUB SLT ISZERO PUSH2 0x1498 JUMPI PUSH0 DUP1 REVERT JUMPDEST PUSH2 0x14A1 DUP8 PUSH2 0x138F JUMP JUMPDEST SWAP6 POP PUSH1 0x20 DUP8 ADD CALLDATALOAD SWAP5 POP PUSH1 0x40 DUP8 ADD CALLDATALOAD PUSH1 0x1 PUSH1 0x1 PUSH1 0x40 SHL SUB DUP2 GT ISZERO PUSH2 0x14C2 JUMPI PUSH0 DUP1 REVERT JUMPDEST PUSH2 0x14CE DUP10 DUP3 DUP11 ADD PUSH2 0x13AA JUMP JUMPDEST SWAP8 SWAP11 SWAP7 SWAP10 POP SWAP8 PUSH1 0x60 DUP2 ADD CALLDATALOAD SWAP7 PUSH1 0x80 SWAP1 SWAP2 ADD CALLDATALOAD SWAP6 POP SWAP4 POP POP POP POP JUMP JUMPDEST PUSH0 PUSH1 0x20 DUP3 DUP5 SUB SLT ISZERO PUSH2 0x14F9 JUMPI PUSH0 DUP1 REVERT JUMPDEST POP CALLDATALOAD SWAP2 SWAP1 POP JUMP JUMPDEST PUSH4 0x4E487B71 PUSH1 0xE0 SHL PUSH0 MSTORE PUSH1 0x41 PUSH1 0x4 MSTORE PUSH1 0x24 PUSH0 REVERT JUMPDEST PUSH1 0x40 MLOAD PUSH1 0x1F DUP3 ADD PUSH1 0x1F NOT AND DUP2 ADD PUSH1 0x1 PUSH1 0x1 PUSH1 0x40 SHL SUB DUP2 GT DUP3 DUP3 LT OR ISZERO PUSH2 0x153C JUMPI PUSH2 0x153C PUSH2 0x1500 JUMP JUMPDEST PUSH1 0x40 MSTORE SWAP2 SWAP1 POP JUMP JUMPDEST PUSH0 DUP3 PUSH1 0x1F DUP4 ADD SLT PUSH2 0x1553 JUMPI PUSH0 DUP1 REVERT JUMPDEST DUP2 CALLDATALOAD PUSH1 0x1 PUSH1 0x1 PUSH1 0x40 SHL SUB DUP2 GT ISZERO PUSH2 0x156C JUMPI PUSH2 0x156C PUSH2 0x1500 JUMP JUMPDEST PUSH2 0x157F PUSH1 0x1F DUP3 ADD PUSH1 0x1F NOT AND PUSH1 0x20 ADD PUSH2 0x1514 JUMP JUMPDEST DUP2 DUP2 MSTORE DUP5 PUSH1 0x20 DUP4 DUP7 ADD ADD GT ISZERO PUSH2 0x1593 JUMPI PUSH0 DUP1 REVERT JUMPDEST DUP2 PUSH1 0x20 DUP6 ADD PUSH1 0x20 DUP4 ADD CALLDATACOPY PUSH0 SWAP2 DUP2 ADD PUSH1 0x20 ADD SWAP2 SWAP1 SWAP2 MSTORE SWAP4 SWAP3 POP POP POP JUMP JUMPDEST PUSH0 DUP1 PUSH0 DUP1 PUSH1 0x80 DUP6 DUP8 SUB SLT ISZERO PUSH2 0x15C2 JUMPI PUSH0 DUP1 REVERT JUMPDEST PUSH2 0x15CB DUP6 PUSH2 0x138F JUMP JUMPDEST SWAP4 POP PUSH2 0x15D9 PUSH1 0x20 DUP7 ADD PUSH2 0x138F JUMP JUMPDEST SWAP3 POP PUSH1 0x40 DUP6 ADD CALLDATALOAD SWAP2 POP PUSH1 0x60 DUP6 ADD CALLDATALOAD PUSH1 0x1 PUSH1 0x1 PUSH1 0x40 SHL SUB DUP2 GT ISZERO PUSH2 0x15FA JUMPI PUSH0 DUP1 REVERT JUMPDEST PUSH2 0x1606 DUP8 DUP3 DUP9 ADD PUSH2 0x1544 JUMP JUMPDEST SWAP2 POP POP SWAP3 SWAP6 SWAP2 SWAP5 POP SWAP3 POP JUMP JUMPDEST PUSH0 DUP1 PUSH1 0x40 DUP4 DUP6 SUB SLT ISZERO PUSH2 0x1623 JUMPI PUSH0 DUP1 REVERT JUMPDEST DUP3 CALLDATALOAD SWAP2 POP PUSH2 0x1633 PUSH1 0x20 DUP5 ADD PUSH2 0x138F JUMP JUMPDEST SWAP1 POP SWAP3 POP SWAP3 SWAP1 POP JUMP JUMPDEST PUSH0 DUP1 DUP4 PUSH1 0x1F DUP5 ADD SLT PUSH2 0x164C JUMPI PUSH0 DUP1 REVERT JUMPDEST POP DUP2 CALLDATALOAD PUSH1 0x1 PUSH1 0x1 PUSH1 0x40 SHL SUB DUP2 GT ISZERO PUSH2 0x1662 JUMPI PUSH0 DUP1 REVERT JUMPDEST PUSH1 0x20 DUP4 ADD SWAP2 POP DUP4 PUSH1 0x20 DUP3 PUSH1 0x5 SHL DUP6 ADD ADD GT ISZERO PUSH2 0x13E7 JUMPI PUSH0 DUP1 REVERT JUMPDEST PUSH0 DUP1 PUSH0 DUP1 PUSH0 DUP1 PUSH0 DUP1 PUSH0 PUSH1 0xC0 DUP11 DUP13 SUB SLT ISZERO PUSH2 0x1694 JUMPI PUSH0 DUP1 REVERT JUMPDEST DUP10 CALLDATALOAD PUSH1 0x1 PUSH1 0x1 PUSH1 0x40 SHL SUB DUP1 DUP3 GT ISZERO PUSH2 0x16AA JUMPI PUSH0 DUP1 REVERT JUMPDEST PUSH2 0x16B6 DUP14 DUP4 DUP15 ADD PUSH2 0x163C JUMP JUMPDEST SWAP1 SWAP12 POP SWAP10 POP PUSH1 0x20 DUP13 ADD CALLDATALOAD SWAP2 POP DUP1 DUP3 GT ISZERO PUSH2 0x16CE JUMPI PUSH0 DUP1 REVERT JUMPDEST PUSH2 0x16DA DUP14 DUP4 DUP15 ADD PUSH2 0x163C JUMP JUMPDEST SWAP1 SWAP10 POP SWAP8 POP PUSH1 0x40 DUP13 ADD CALLDATALOAD SWAP2 POP DUP1 DUP3 GT ISZERO PUSH2 0x16F2 JUMPI PUSH0 DUP1 REVERT JUMPDEST POP PUSH2 0x16FF DUP13 DUP3 DUP14 ADD PUSH2 0x163C JUMP JUMPDEST SWAP11 SWAP14 SWAP10 SWAP13 POP SWAP8 SWAP11 SWAP7 SWAP10 SWAP8 SWAP9 PUSH1 0x60 DUP9 ADD CALLDATALOAD SWAP8 PUSH1 0x80 DUP2 ADD CALLDATALOAD SWAP8 POP PUSH1 0xA0 ADD CALLDATALOAD SWAP6 POP SWAP4 POP POP POP POP JUMP JUMPDEST PUSH0 DUP1 PUSH0 DUP1 PUSH0 DUP1 PUSH0 DUP1 PUSH1 0xA0 DUP10 DUP12 SUB SLT ISZERO PUSH2 0x173B JUMPI PUSH0 DUP1 REVERT JUMPDEST DUP9 CALLDATALOAD PUSH1 0x1 PUSH1 0x1 PUSH1 0x40 SHL SUB DUP1 DUP3 GT ISZERO PUSH2 0x1751 JUMPI PUSH0 DUP1 REVERT JUMPDEST PUSH2 0x175D DUP13 DUP4 DUP14 ADD PUSH2 0x163C JUMP JUMPDEST SWAP1 SWAP11 POP SWAP9 POP PUSH1 0x20 DUP12 ADD CALLDATALOAD SWAP2 POP DUP1 DUP3 GT ISZERO PUSH2 0x1775 JUMPI PUSH0 DUP1 REVERT JUMPDEST PUSH2 0x1781 DUP13 DUP4 DUP14 ADD PUSH2 0x163C JUMP JUMPDEST SWAP1 SWAP9 POP SWAP7 POP PUSH1 0x40 DUP12 ADD CALLDATALOAD SWAP2 POP DUP1 DUP3 GT ISZERO PUSH2 0x1799 JUMPI PUSH0 DUP1 REVERT JUMPDEST POP PUSH2 0x17A6 DUP12 DUP3 DUP13 ADD PUSH2 0x163C JUMP JUMPDEST SWAP10 SWAP13 SWAP9 SWAP12 POP SWAP7 SWAP10 SWAP6 SWAP9 SWAP7 SWAP8 PUSH1 0x60 DUP8 ADD CALLDATALOAD SWAP7 PUSH1 0x80 ADD CALLDATALOAD SWAP6 POP SWAP4 POP POP POP POP JUMP JUMPDEST PUSH0 DUP3 PUSH1 0x1F DUP4 ADD SLT PUSH2 0x17D3 JUMPI PUSH0 DUP1 REVERT JUMPDEST DUP2 CALLDATALOAD PUSH1 0x20 PUSH1 0x1 PUSH1 0x1 PUSH1 0x40 SHL SUB DUP3 GT ISZERO PUSH2 0x17EE JUMPI PUSH2 0x17EE PUSH2 0x1500 JUMP JUMPDEST DUP2 PUSH1 0x5 SHL PUSH2 0x17FD DUP3 DUP3 ADD PUSH2 0x1514 JUMP JUMPDEST SWAP3 DUP4 MSTORE DUP5 DUP2 ADD DUP3 ADD SWAP3 DUP3 DUP2 ADD SWAP1 DUP8 DUP6 GT ISZERO PUSH2 0x1816 JUMPI PUSH0 DUP1 REVERT JUMPDEST DUP4 DUP8 ADD SWAP3 POP JUMPDEST DUP5 DUP4 LT ISZERO PUSH2 0x1835 JUMPI DUP3 CALLDATALOAD DUP3 MSTORE SWAP2 DUP4 ADD SWAP2 SWAP1 DUP4 ADD SWAP1 PUSH2 0x181C JUMP JUMPDEST SWAP8 SWAP7 POP POP POP POP POP POP POP JUMP JUMPDEST PUSH0 DUP1 PUSH0 DUP1 PUSH0 PUSH1 0xA0 DUP7 DUP9 SUB SLT ISZERO PUSH2 0x1854 JUMPI PUSH0 DUP1 REVERT JUMPDEST PUSH2 0x185D DUP7 PUSH2 0x138F JUMP JUMPDEST SWAP5 POP PUSH2 0x186B PUSH1 0x20 DUP8 ADD PUSH2 0x138F JUMP JUMPDEST SWAP4 POP PUSH1 0x40 DUP7 ADD CALLDATALOAD PUSH1 0x1 PUSH1 0x1 PUSH1 0x40 SHL SUB DUP1 DUP3 GT ISZERO PUSH2 0x1886 JUMPI PUSH0 DUP1 REVERT JUMPDEST PUSH2 0x1892 DUP10 DUP4 DUP11 ADD PUSH2 0x17C4 JUMP JUMPDEST SWAP5 POP PUSH1 0x60 DUP9 ADD CALLDATALOAD SWAP2 POP DUP1 DUP3 GT ISZERO PUSH2 0x18A7 JUMPI PUSH0 DUP1 REVERT JUMPDEST PUSH2 0x18B3 DUP10 DUP4 DUP11 ADD PUSH2 0x17C4 JUMP JUMPDEST SWAP4 POP PUSH1 0x80 DUP9 ADD CALLDATALOAD SWAP2 POP DUP1 DUP3 GT ISZERO PUSH2 0x18C8 JUMPI PUSH0 DUP1 REVERT JUMPDEST POP PUSH2 0x18D5 DUP9 DUP3 DUP10 ADD PUSH2 0x1544 JUMP JUMPDEST SWAP2 POP POP SWAP3 SWAP6 POP SWAP3 SWAP6 SWAP1 SWAP4 POP JUMP JUMPDEST PUSH0 DUP1 PUSH0 DUP1 PUSH0 PUSH1 0xA0 DUP7 DUP9 SUB SLT ISZERO PUSH2 0x18F6 JUMPI PUSH0 DUP1 REVERT JUMPDEST PUSH2 0x18FF DUP7 PUSH2 0x138F JUMP JUMPDEST SWAP5 POP PUSH2 0x190D PUSH1 0x20 DUP8 ADD PUSH2 0x138F JUMP JUMPDEST SWAP4 POP PUSH1 0x40 DUP7 ADD CALLDATALOAD SWAP3 POP PUSH1 0x60 DUP7 ADD CALLDATALOAD SWAP2 POP PUSH1 0x80 DUP7 ADD CALLDATALOAD PUSH1 0x1 PUSH1 0x1 PUSH1 0x40 SHL SUB DUP2 GT ISZERO PUSH2 0x1935 JUMPI PUSH0 DUP1 REVERT JUMPDEST PUSH2 0x18D5 DUP9 DUP3 DUP10 ADD PUSH2 0x1544 JUMP JUMPDEST DUP2 DUP4 MSTORE DUP2 DUP2 PUSH1 0x20 DUP6 ADD CALLDATACOPY POP PUSH0 DUP3 DUP3 ADD PUSH1 0x20 SWAP1 DUP2 ADD SWAP2 SWAP1 SWAP2 MSTORE PUSH1 0x1F SWAP1 SWAP2 ADD PUSH1 0x1F NOT AND SWAP1 SWAP2 ADD ADD SWAP1 JUMP JUMPDEST PUSH1 0x1 DUP1 PUSH1 0xA0 SHL SUB DUP8 AND DUP2 MSTORE DUP6 PUSH1 0x20 DUP3 ADD MSTORE PUSH1 0xA0 PUSH1 0x40 DUP3 ADD MSTORE PUSH0 PUSH2 0x1990 PUSH1 0xA0 DUP4 ADD DUP7 DUP9 PUSH2 0x1941 JUMP JUMPDEST PUSH1 0x60 DUP4 ADD SWAP5 SWAP1 SWAP5 MSTORE POP PUSH1 0x80 ADD MSTORE SWAP5 SWAP4 POP POP POP POP JUMP JUMPDEST PUSH1 0x1 DUP1 PUSH1 0xA0 SHL SUB DUP6 AND DUP2 MSTORE DUP4 PUSH1 0x20 DUP3 ADD MSTORE PUSH1 0x60 PUSH1 0x40 DUP3 ADD MSTORE PUSH0 PUSH2 0x19CC PUSH1 0x60 DUP4 ADD DUP5 DUP7 PUSH2 0x1941 JUMP JUMPDEST SWAP7 SWAP6 POP POP POP POP POP POP JUMP JUMPDEST PUSH1 0x20 DUP1 DUP3 MSTORE PUSH1 0x23 SWAP1 DUP3 ADD MSTORE PUSH32 0x54696D656C6F636B436F6E74726F6C6C65723A206C656E677468206D69736D61 PUSH1 0x40 DUP3 ADD MSTORE PUSH3 0xE8C6D PUSH1 0xEB SHL PUSH1 0x60 DUP3 ADD MSTORE PUSH1 0x80 ADD SWAP1 JUMP JUMPDEST PUSH4 0x4E487B71 PUSH1 0xE0 SHL PUSH0 MSTORE PUSH1 0x32 PUSH1 0x4 MSTORE PUSH1 0x24 PUSH0 REVERT JUMPDEST PUSH0 PUSH1 0x20 DUP3 DUP5 SUB SLT ISZERO PUSH2 0x1A3D JUMPI PUSH0 DUP1 REVERT JUMPDEST PUSH2 0x79C DUP3 PUSH2 0x138F JUMP JUMPDEST PUSH0 DUP1 DUP4 CALLDATALOAD PUSH1 0x1E NOT DUP5 CALLDATASIZE SUB ADD DUP2 SLT PUSH2 0x1A5B JUMPI PUSH0 DUP1 REVERT JUMPDEST DUP4 ADD DUP1 CALLDATALOAD SWAP2 POP PUSH1 0x1 PUSH1 0x1 PUSH1 0x40 SHL SUB DUP3 GT ISZERO PUSH2 0x1A74 JUMPI PUSH0 DUP1 REVERT JUMPDEST PUSH1 0x20 ADD SWAP2 POP CALLDATASIZE DUP2 SWAP1 SUB DUP3 SGT ISZERO PUSH2 0x13E7 JUMPI PUSH0 DUP1 REVERT JUMPDEST PUSH4 0x4E487B71 PUSH1 0xE0 SHL PUSH0 MSTORE PUSH1 0x11 PUSH1 0x4 MSTORE PUSH1 0x24 PUSH0 REVERT JUMPDEST PUSH0 PUSH1 0x1 DUP3 ADD PUSH2 0x1AAD JUMPI PUSH2 0x1AAD PUSH2 0x1A88 JUMP JUMPDEST POP PUSH1 0x1 ADD SWAP1 JUMP JUMPDEST DUP2 DUP4 MSTORE PUSH0 PUSH1 0x20 DUP1 DUP6 ADD DUP1 DUP2 SWAP7 POP DUP6 PUSH1 0x5 SHL DUP2 ADD SWAP2 POP DUP5 PUSH0 JUMPDEST DUP8 DUP2 LT ISZERO PUSH2 0x1B33 JUMPI DUP3 DUP5 SUB DUP10 MSTORE DUP2 CALLDATALOAD PUSH1 0x1E NOT DUP9 CALLDATASIZE SUB ADD DUP2 SLT PUSH2 0x1AEC JUMPI PUSH0 DUP1 REVERT JUMPDEST DUP8 ADD DUP6 DUP2 ADD SWAP1 CALLDATALOAD PUSH1 0x1 PUSH1 0x1 PUSH1 0x40 SHL SUB DUP2 GT ISZERO PUSH2 0x1B06 JUMPI PUSH0 DUP1 REVERT JUMPDEST DUP1 CALLDATASIZE SUB DUP3 SGT ISZERO PUSH2 0x1B14 JUMPI PUSH0 DUP1 REVERT JUMPDEST PUSH2 0x1B1F DUP7 DUP3 DUP5 PUSH2 0x1941 JUMP JUMPDEST SWAP11 DUP8 ADD SWAP11 SWAP6 POP POP POP SWAP1 DUP5 ADD SWAP1 PUSH1 0x1 ADD PUSH2 0x1ACC JUMP JUMPDEST POP SWAP2 SWAP8 SWAP7 POP POP POP POP POP POP POP JUMP JUMPDEST PUSH1 0xA0 DUP1 DUP3 MSTORE DUP2 ADD DUP9 SWAP1 MSTORE PUSH0 DUP10 PUSH1 0xC0 DUP4 ADD DUP3 JUMPDEST DUP12 DUP2 LT ISZERO PUSH2 0x1B80 JUMPI PUSH1 0x1 PUSH1 0x1 PUSH1 0xA0 SHL SUB PUSH2 0x1B6B DUP5 PUSH2 0x138F JUMP JUMPDEST AND DUP3 MSTORE PUSH1 0x20 SWAP3 DUP4 ADD SWAP3 SWAP1 SWAP2 ADD SWAP1 PUSH1 0x1 ADD PUSH2 0x1B52 JUMP JUMPDEST POP DUP4 DUP2 SUB PUSH1 0x20 DUP6 ADD MSTORE DUP9 DUP2 MSTORE PUSH1 0x1 PUSH1 0x1 PUSH1 0xFB SHL SUB DUP10 GT ISZERO PUSH2 0x1B9F JUMPI PUSH0 DUP1 REVERT JUMPDEST DUP9 PUSH1 0x5 SHL SWAP2 POP DUP2 DUP11 PUSH1 0x20 DUP4 ADD CALLDATACOPY ADD DUP3 DUP2 SUB PUSH1 0x20 SWAP1 DUP2 ADD PUSH1 0x40 DUP6 ADD MSTORE PUSH2 0x1BC7 SWAP1 DUP3 ADD DUP8 DUP10 PUSH2 0x1AB4 JUMP JUMPDEST PUSH1 0x60 DUP5 ADD SWAP6 SWAP1 SWAP6 MSTORE POP POP PUSH1 0x80 ADD MSTORE SWAP7 SWAP6 POP POP POP POP POP POP JUMP JUMPDEST DUP1 DUP3 ADD DUP1 DUP3 GT ISZERO PUSH2 0x6C6 JUMPI PUSH2 0x6C6 PUSH2 0x1A88 JUMP JUMPDEST PUSH0 JUMPDEST DUP4 DUP2 LT ISZERO PUSH2 0x1C0C JUMPI DUP2 DUP2 ADD MLOAD DUP4 DUP3 ADD MSTORE PUSH1 0x20 ADD PUSH2 0x1BF4 JUMP JUMPDEST POP POP PUSH0 SWAP2 ADD MSTORE JUMP JUMPDEST PUSH32 0x416363657373436F6E74726F6C3A206163636F756E7420000000000000000000 DUP2 MSTORE PUSH0 DUP4 MLOAD PUSH2 0x1C4B DUP2 PUSH1 0x17 DUP6 ADD PUSH1 0x20 DUP9 ADD PUSH2 0x1BF2 JUMP JUMPDEST PUSH17 0x1034B99036B4B9B9B4B733903937B6329 PUSH1 0x7D SHL PUSH1 0x17 SWAP2 DUP5 ADD SWAP2 DUP3 ADD MSTORE DUP4 MLOAD PUSH2 0x1C7C DUP2 PUSH1 0x28 DUP5 ADD PUSH1 0x20 DUP9 ADD PUSH2 0x1BF2 JUMP JUMPDEST ADD PUSH1 0x28 ADD SWAP5 SWAP4 POP POP POP POP JUMP JUMPDEST PUSH1 0x20 DUP2 MSTORE PUSH0 DUP3 MLOAD DUP1 PUSH1 0x20 DUP5 ADD MSTORE PUSH2 0x1CA6 DUP2 PUSH1 0x40 DUP6 ADD PUSH1 0x20 DUP8 ADD PUSH2 0x1BF2 JUMP JUMPDEST PUSH1 0x1F ADD PUSH1 0x1F NOT AND SWAP2 SWAP1 SWAP2 ADD PUSH1 0x40 ADD SWAP3 SWAP2 POP POP JUMP JUMPDEST PUSH1 0x20 DUP1 DUP3 MSTORE PUSH1 0x2A SWAP1 DUP3 ADD MSTORE PUSH32 0x54696D656C6F636B436F6E74726F6C6C65723A206F7065726174696F6E206973 PUSH1 0x40 DUP3 ADD MSTORE PUSH10 0x206E6F74207265616479 PUSH1 0xB0 SHL PUSH1 0x60 DUP3 ADD MSTORE PUSH1 0x80 ADD SWAP1 JUMP JUMPDEST DUP2 DUP4 DUP3 CALLDATACOPY PUSH0 SWAP2 ADD SWAP1 DUP2 MSTORE SWAP2 SWAP1 POP JUMP JUMPDEST DUP1 DUP3 MUL DUP2 ISZERO DUP3 DUP3 DIV DUP5 EQ OR PUSH2 0x6C6 JUMPI PUSH2 0x6C6 PUSH2 0x1A88 JUMP JUMPDEST PUSH0 DUP2 PUSH2 0x1D38 JUMPI PUSH2 0x1D38 PUSH2 0x1A88 JUMP JUMPDEST POP PUSH0 NOT ADD SWAP1 JUMP INVALID LOG2 PUSH5 0x6970667358 0x22 SLT KECCAK256 PUSH14 0x5C27212AE9E63CBAFE0F1470E542 0xE1 TIMESTAMP SUB CALLER 0xF7 0xBF SWAP15 0x23 EXTCODECOPY GASPRICE 0xEC TIMESTAMP 0xE PUSH32 0xBAA1D464736F6C634300081400335F58E3A2316349923CE3780F8D587DB2D723 PUSH25 0xAED66A8261C916544FA6846CA5B09AA5AEB3702CFD50B6B62B 0xC4 MSTORE8 0x26 DIV SWAP4 DUP16 0x21 0x24 DUP11 0x27 LOG1 0xD5 0xCA PUSH20 0x6082B6819CC1D8AA0F3194971A2A116679F7C209 0xF PUSH10 0x39C8D4E01A2A8D7E41D5 0x5E MSTORE8 MLOAD CHAINID SWAP15 PUSH4 0xFD643C72 PUSH18 0xC63C0180259ABA6B2D05451E3591A24E58B PUSH3 0x239378 ADDMOD JUMPI 0x26 0xF7 DUP4 "
		},
		"gasEstimates": {
			"creation": {
				"codeDepositCost": "1508200",
				"executionCost": "infinite",
				"totalCost": "infinite"
			},
			"external": {
				"CANCELLER_ROLE()": "283",
				"DEFAULT_ADMIN_ROLE()": "260",
				"EXECUTOR_ROLE()": "285",
				"PROPOSER_ROLE()": "284",
				"TIMELOCK_ADMIN_ROLE()": "240",
				"cancel(bytes32)": "infinite",
				"execute(address,uint256,bytes,bytes32,bytes32)": "infinite",
				"executeBatch(address[],uint256[],bytes[],bytes32,bytes32)": "infinite",
				"getMinDelay()": "2401",
				"getRoleAdmin(bytes32)": "2490",
				"getTimestamp(bytes32)": "2524",
				"grantRole(bytes32,address)": "infinite",
				"hasRole(bytes32,address)": "2693",
				"hashOperation(address,uint256,bytes,bytes32,bytes32)": "infinite",
				"hashOperationBatch(address[],uint256[],bytes[],bytes32,bytes32)": "infinite",
				"isOperation(bytes32)": "2504",
				"isOperationDone(bytes32)": "2510",
				"isOperationPending(bytes32)": "2559",
				"isOperationReady(bytes32)": "2583",
				"onERC1155BatchReceived(address,address,uint256[],uint256[],bytes)": "infinite",
				"onERC1155Received(address,address,uint256,uint256,bytes)": "infinite",
				"onERC721Received(address,address,uint256,bytes)": "infinite",
				"renounceRole(bytes32,address)": "29058",
				"revokeRole(bytes32,address)": "infinite",
				"schedule(address,uint256,bytes,bytes32,bytes32,uint256)": "infinite",
				"scheduleBatch(address[],uint256[],bytes[],bytes32,bytes32,uint256)": "infinite",
				"supportsInterface(bytes4)": "infinite",
				"updateDelay(uint256)": "25891"
			}
		},
		"methodIdentifiers": {
			"CANCELLER_ROLE()": "b08e51c0",
			"DEFAULT_ADMIN_ROLE()": "a217fddf",
			"EXECUTOR_ROLE()": "07bd0265",
			"PROPOSER_ROLE()": "8f61f4f5",
			"TIMELOCK_ADMIN_ROLE()": "0d3cf6fc",
			"cancel(bytes32)": "c4d252f5",
			"execute(address,uint256,bytes,bytes32,bytes32)": "134008d3",
			"executeBatch(address[],uint256[],bytes[],bytes32,bytes32)": "e38335e5",
			"getMinDelay()": "f27a0c92",
			"getRoleAdmin(bytes32)": "248a9ca3",
			"getTimestamp(bytes32)": "d45c4435",
			"grantRole(bytes32,address)": "2f2ff15d",
			"hasRole(bytes32,address)": "91d14854",
			"hashOperation(address,uint256,bytes,bytes32,bytes32)": "8065657f",
			"hashOperationBatch(address[],uint256[],bytes[],bytes32,bytes32)": "b1c5f427",
			"isOperation(bytes32)": "31d50750",
			"isOperationDone(bytes32)": "2ab0f529",
			"isOperationPending(bytes32)": "584b153e",
			"isOperationReady(bytes32)": "13bc9f20",
			"onERC1155BatchReceived(address,address,uint256[],uint256[],bytes)": "bc197c81",
			"onERC1155Received(address,address,uint256,uint256,bytes)": "f23a6e61",
			"onERC721Received(address,address,uint256,bytes)": "150b7a02",
			"renounceRole(bytes32,address)": "36568abe",
			"revokeRole(bytes32,address)": "d547741f",
			"schedule(address,uint256,bytes,bytes32,bytes32,uint256)": "01d5062a",
			"scheduleBatch(address[],uint256[],bytes[],bytes32,bytes32,uint256)": "8f2a0bb0",
			"supportsInterface(bytes4)": "01ffc9a7",
			"updateDelay(uint256)": "64d62353"
		}
	},
	"abi": [
		{
			"inputs": [
				{
					"internalType": "uint256",
					"name": "delay",
					"type": "uint256"
				},
				{
					"internalType": "address[]",
					"name": "proposers",
					"type": "address[]"
				},
				{
					"internalType": "address[]",
					"name": "executors",
					"type": "address[]"
				},
				{
					"internalType": "address",
					"name": "admin",
					"type": "address"
				}
			],
			"stateMutability": "nonpayable",
			"type": "constructor"
		},
		{
			"anonymous": false,
			"inputs": [
				{
					"indexed": true,
					"internalType": "bytes32",
					"name": "id",
					"type": "bytes32"
				},
				{
					"indexed": true,
					"internalType": "uint256",
					"name": "index",
					"type": "uint256"
				},
				{
					"indexed": false,
					"internalType": "address",
					"name": "target",
					"type": "address"
				},
				{
					"indexed": false,
					"internalType": "uint256",
					"name": "value",
					"type": "uint256"
				},
				{
					"indexed": false,
					"internalType": "bytes",
					"name": "data",
					"type": "bytes"
				}
			],
			"name": "CallExecuted",
			"type": "event"
		},
		{
			"anonymous": false,
			"inputs": [
				{
					"indexed": true,
					"internalType": "bytes32",
					"name": "id",
					"type": "bytes32"
				},
				{
					"indexed": false,
					"internalType": "bytes32",
					"name": "salt",
					"type": "bytes32"
				}
			],
			"name": "CallSalt",
			"type": "event"
		},
		{
			"anonymous": false,
			"inputs": [
				{
					"indexed": true,
					"internalType": "bytes32",
					"name": "id",
					"type": "bytes32"
				},
				{
					"indexed": true,
					"internalType": "uint256",
					"name": "index",
					"type": "uint256"
				},
				{
					"indexed": false,
					"internalType": "address",
					"name": "target",
					"type": "address"
				},
				{
					"indexed": false,
					"internalType": "uint256",
					"name": "value",
					"type": "uint256"
				},
				{
					"indexed": false,
					"internalType": "bytes",
					"name": "data",
					"type": "bytes"
				},
				{
					"indexed": false,
					"internalType": "bytes32",
					"name": "predecessor",
					"type": "bytes32"
				},
				{
					"indexed": false,
					"internalType": "uint256",
					"name": "delay",
					"type": "uint256"
				}
			],
			"name": "CallScheduled",
			"type": "event"
		},
		{
			"anonymous": false,
			"inputs": [
				{
					"indexed": true,
					"internalType": "bytes32",
					"name": "id",
					"type": "bytes32"
				}
			],
			"name": "Cancelled",
			"type": "event"
		},
		{
			"anonymous": false,
			"inputs": [
				{
					"indexed": false,
					"internalType": "uint256",
					"name": "oldDuration",
					"type": "uint256"
				},
				{
					"indexed": false,
					"internalType": "uint256",
					"name": "newDuration",
					"type": "uint256"
				}
			],
			"name": "MinDelayChange",
			"type": "event"
		},
		{
			"anonymous": false,
			"inputs": [
				{
					"indexed": true,
					"internalType": "bytes32",
					"name": "role",
					"type": "bytes32"
				},
				{
					"indexed": true,
					"internalType": "bytes32",
					"name": "previousAdminRole",
					"type": "bytes32"
				},
				{
					"indexed": true,
					"internalType": "bytes32",
					"name": "newAdminRole",
					"type": "bytes32"
				}
			],
			"name": "RoleAdminChanged",
			"type": "event"
		},
		{
			"anonymous": false,
			"inputs": [
				{
					"indexed": true,
					"internalType": "bytes32",
					"name": "role",
					"type": "bytes32"
				},
				{
					"indexed": true,
					"internalType": "address",
					"name": "account",
					"type": "address"
				},
				{
					"indexed": true,
					"internalType": "address",
					"name": "sender",
					"type": "address"
				}
			],
			"name": "RoleGranted",
			"type": "event"
		},
		{
			"anonymous": false,
			"inputs": [
				{
					"indexed": true,
					"internalType": "bytes32",
					"name": "role",
					"type": "bytes32"
				},
				{
					"indexed": true,
					"internalType": "address",
					"name": "account",
					"type": "address"
				},
				{
					"indexed": true,
					"internalType": "address",
					"name": "sender",
					"type": "address"
				}
			],
			"name": "RoleRevoked",
			"type": "event"
		},
		{
			"inputs": [],
			"name": "CANCELLER_ROLE",
			"outputs": [
				{
					"internalType": "bytes32",
					"name": "",
					"type": "bytes32"
				}
			],
			"stateMutability": "view",
			"type": "function"
		},
		{
			"inputs": [],
			"name": "DEFAULT_ADMIN_ROLE",
			"outputs": [
				{
					"internalType": "bytes32",
					"name": "",
					"type": "bytes32"
				}
			],
			"stateMutability": "view",
			"type": "function"
		},
		{
			"inputs": [],
			"name": "EXECUTOR_ROLE",
			"outputs": [
				{
					"internalType": "bytes32",
					"name": "",
					"type": "bytes32"
				}
			],
			"stateMutability": "view",
			"type": "function"
		},
		{
			"inputs": [],
			"name": "PROPOSER_ROLE",
			"outputs": [
				{
					"internalType": "bytes32",
					"name": "",
					"type": "bytes32"
				}
			],
			"stateMutability": "view",
			"type": "function"
		},
		{
			"inputs": [],
			"name": "TIMELOCK_ADMIN_ROLE",
			"outputs": [
				{
					"internalType": "bytes32",
					"name": "",
					"type": "bytes32"
				}
			],
			"stateMutability": "view",
			"type": "function"
		},
		{
			"inputs": [
				{
					"internalType": "bytes32",
					"name": "id",
					"type": "bytes32"
				}
			],
			"name": "cancel",
			"outputs": [],
			"stateMutability": "nonpayable",
			"type": "function"
		},
		{
			"inputs": [
				{
					"internalType": "address",
					"name": "target",
					"type": "address"
				},
				{
					"internalType": "uint256",
					"name": "value",
					"type": "uint256"
				},
				{
					"internalType": "bytes",
					"name": "payload",
					"type": "bytes"
				},
				{
					"internalType": "bytes32",
					"name": "predecessor",
					"type": "bytes32"
				},
				{
					"internalType": "bytes32",
					"name": "salt",
					"type": "bytes32"
				}
			],
			"name": "execute",
			"outputs": [],
			"stateMutability": "payable",
			"type": "function"
		},
		{
			"inputs": [
				{
					"internalType": "address[]",
					"name": "targets",
					"type": "address[]"
				},
				{
					"internalType": "uint256[]",
					"name": "values",
					"type": "uint256[]"
				},
				{
					"internalType": "bytes[]",
					"name": "payloads",
					"type": "bytes[]"
				},
				{
					"internalType": "bytes32",
					"name": "predecessor",
					"type": "bytes32"
				},
				{
					"internalType": "bytes32",
					"name": "salt",
					"type": "bytes32"
				}
			],
			"name": "executeBatch",
			"outputs": [],
			"stateMutability": "payable",
			"type": "function"
		},
		{
			"inputs": [],
			"name": "getMinDelay",
			"outputs": [
				{
					"internalType": "uint256",
					"name": "",
					"type": "uint256"
				}
			],
			"stateMutability": "view",
			"type": "function"
		},
		{
			"inputs": [
				{
					"internalType": "bytes32",
					"name": "role",
					"type": "bytes32"
				}
			],
			"name": "getRoleAdmin",
			"outputs": [
				{
					"internalType": "bytes32",
					"name": "",
					"type": "bytes32"
				}
			],
			"stateMutability": "view",
			"type": "function"
		},
		{
			"inputs": [
				{
					"internalType": "bytes32",
					"name": "id",
					"type": "bytes32"
				}
			],
			"name": "getTimestamp",
			"outputs": [
				{
					"internalType": "uint256",
					"name": "",
					"type": "uint256"
				}
			],
			"stateMutability": "view",
			"type": "function"
		},
		{
			"inputs": [
				{
					"internalType": "bytes32",
					"name": "role",
					"type": "bytes32"
				},
				{
					"internalType": "address",
					"name": "account",
					"type": "address"
				}
			],
			"name": "grantRole",
			"outputs": [],
			"stateMutability": "nonpayable",
			"type": "function"
		},
		{
			"inputs": [
				{
					"internalType": "bytes32",
					"name": "role",
					"type": "bytes32"
				},
				{
					"internalType": "address",
					"name": "account",
					"type": "address"
				}
			],
			"name": "hasRole",
			"outputs": [
				{
					"internalType": "bool",
					"name": "",
					"type": "bool"
				}
			],
			"stateMutability": "view",
			"type": "function"
		},
		{
			"inputs": [
				{
					"internalType": "address",
					"name": "target",
					"type": "address"
				},
				{
					"internalType": "uint256",
					"name": "value",
					"type": "uint256"
				},
				{
					"internalType": "bytes",
					"name": "data",
					"type": "bytes"
				},
				{
					"internalType": "bytes32",
					"name": "predecessor",
					"type": "bytes32"
				},
				{
					"internalType": "bytes32",
					"name": "salt",
					"type": "bytes32"
				}
			],
			"name": "hashOperation",
			"outputs": [
				{
					"internalType": "bytes32",
					"name": "",
					"type": "bytes32"
				}
			],
			"stateMutability": "pure",
			"type": "function"
		},
		{
			"inputs": [
				{
					"internalType": "address[]",
					"name": "targets",
					"type": "address[]"
				},
				{
					"internalType": "uint256[]",
					"name": "values",
					"type": "uint256[]"
				},
				{
					"internalType": "bytes[]",
					"name": "payloads",
					"type": "bytes[]"
				},
				{
					"internalType": "bytes32",
					"name": "predecessor",
					"type": "bytes32"
				},
				{
					"internalType": "bytes32",
					"name": "salt",
					"type": "bytes32"
				}
			],
			"name": "hashOperationBatch",
			"outputs": [
				{
					"internalType": "bytes32",
					"name": "",
					"type": "bytes32"
				}
			],
			"stateMutability": "pure",
			"type": "function"
		},
		{
			"inputs": [
				{
					"internalType": "bytes32",
					"name": "id",
					"type": "bytes32"
				}
			],
			"name": "isOperation",
			"outputs": [
				{
					"internalType": "bool",
					"name": "",
					"type": "bool"
				}
			],
			"stateMutability": "view",
			"type": "function"
		},
		{
			"inputs": [
				{
					"internalType": "bytes32",
					"name": "id",
					"type": "bytes32"
				}
			],
			"name": "isOperationDone",
			"outputs": [
				{
					"internalType": "bool",
					"name": "",
					"type": "bool"
				}
			],
			"stateMutability": "view",
			"type": "function"
		},
		{
			"inputs": [
				{
					"internalType": "bytes32",
					"name": "id",
					"type": "bytes32"
				}
			],
			"name": "isOperationPending",
			"outputs": [
				{
					"internalType": "bool",
					"name": "",
					"type": "bool"
				}
			],
			"stateMutability": "view",
			"type": "function"
		},
		{
			"inputs": [
				{
					"internalType": "bytes32",
					"name": "id",
					"type": "bytes32"
				}
			],
			"name": "isOperationReady",
			"outputs": [
				{
					"internalType": "bool",
					"name": "",
					"type": "bool"
				}
			],
			"stateMutability": "view",
			"type": "function"
		},
		{
			"inputs": [
				{
					"internalType": "address",
					"name": "",
					"type": "address"
				},
				{
					"internalType": "address",
					"name": "",
					"type": "address"
				},
				{
					"internalType": "uint256[]",
					"name": "",
					"type": "uint256[]"
				},
				{
					"internalType": "uint256[]",
					"name": "",
					"type": "uint256[]"
				},
				{
					"internalType": "bytes",
					"name": "",
					"type": "bytes"
				}
			],
			"name": "onERC1155BatchReceived",
			"outputs": [
				{
					"internalType": "bytes4",
					"name": "",
					"type": "bytes4"
				}
			],
			"stateMutability": "nonpayable",
			"type": "function"
		},
		{
			"inputs": [
				{
					"internalType": "address",
					"name": "",
					"type": "address"
				},
				{
					"internalType": "address",
					"name": "",
					"type": "address"
				},
				{
					"internalType": "uint256",
					"name": "",
					"type": "uint256"
				},
				{
					"internalType": "uint256",
					"name": "",
					"type": "uint256"
				},
				{
					"internalType": "bytes",
					"name": "",
					"type": "bytes"
				}
			],
			"name": "onERC1155Received",
			"outputs": [
				{
					"internalType": "bytes4",
					"name": "",
					"type": "bytes4"
				}
			],
			"stateMutability": "nonpayable",
			"type": "function"
		},
		{
			"inputs": [
				{
					"internalType": "address",
					"name": "",
					"type": "address"
				},
				{
					"internalType": "address",
					"name": "",
					"type": "address"
				},
				{
					"internalType": "uint256",
					"name": "",
					"type": "uint256"
				},
				{
					"internalType": "bytes",
					"name": "",
					"type": "bytes"
				}
			],
			"name": "onERC721Received",
			"outputs": [
				{
					"internalType": "bytes4",
					"name": "",
					"type": "bytes4"
				}
			],
			"stateMutability": "nonpayable",
			"type": "function"
		},
		{
			"inputs": [
				{
					"internalType": "bytes32",
					"name": "role",
					"type": "bytes32"
				},
				{
					"internalType": "address",
					"name": "account",
					"type": "address"
				}
			],
			"name": "renounceRole",
			"outputs": [],
			"stateMutability": "nonpayable",
			"type": "function"
		},
		{
			"inputs": [
				{
					"internalType": "bytes32",
					"name": "role",
					"type": "bytes32"
				},
				{
					"internalType": "address",
					"name": "account",
					"type": "address"
				}
			],
			"name": "revokeRole",
			"outputs": [],
			"stateMutability": "nonpayable",
			"type": "function"
		},
		{
			"inputs": [
				{
					"internalType": "address",
					"name": "target",
					"type": "address"
				},
				{
					"internalType": "uint256",
					"name": "value",
					"type": "uint256"
				},
				{
					"internalType": "bytes",
					"name": "data",
					"type": "bytes"
				},
				{
					"internalType": "bytes32",
					"name": "predecessor",
					"type": "bytes32"
				},
				{
					"internalType": "bytes32",
					"name": "salt",
					"type": "bytes32"
				},
				{
					"internalType": "uint256",
					"name": "delay",
					"type": "uint256"
				}
			],
			"name": "schedule",
			"outputs": [],
			"stateMutability": "nonpayable",
			"type": "function"
		},
		{
			"inputs": [
				{
					"internalType": "address[]",
					"name": "targets",
					"type": "address[]"
				},
				{
					"internalType": "uint256[]",
					"name": "values",
					"type": "uint256[]"
				},
				{
					"internalType": "bytes[]",
					"name": "payloads",
					"type": "bytes[]"
				},
				{
					"internalType": "bytes32",
					"name": "predecessor",
					"type": "bytes32"
				},
				{
					"internalType": "bytes32",
					"name": "salt",
					"type": "bytes32"
				},
				{
					"internalType": "uint256",
					"name": "delay",
					"type": "uint256"
				}
			],
			"name": "scheduleBatch",
			"outputs": [],
			"stateMutability": "nonpayable",
			"type": "function"
		},
		{
			"inputs": [
				{
					"internalType": "bytes4",
					"name": "interfaceId",
					"type": "bytes4"
				}
			],
			"name": "supportsInterface",
			"outputs": [
				{
					"internalType": "bool",
					"name": "",
					"type": "bool"
				}
			],
			"stateMutability": "view",
			"type": "function"
		},
		{
			"inputs": [
				{
					"internalType": "uint256",
					"name": "newDelay",
					"type": "uint256"
				}
			],
			"name": "updateDelay",
			"outputs": [],
			"stateMutability": "nonpayable",
			"type": "function"
		},
		{
			"stateMutability": "payable",
			"type": "receive"
		}
	]
}